:4000000000400020110000001D3C00001D3C000010B503F025FEC04670B51222244B1A6003F04CFF234804F0A7FC012003F066FF302003F05FFE204A204B1A60204C8025C1
:40004000ED0525601F4A116802230B4313601E4A1E4B1A6000221E4B1A601E4A136808218B431360FA20C00003F0A2FE1A4803F095FE1A4A1A4B1A601A4B1B4A1A60C821DF
:4000800049011A4A11601A4A1A6080221206194B1A608022D202184B1A604123174A1360174A13604022174B1A60256070BDC04630001040001BB7000600008004010B402E
:4000C0000C020B4078002E402D3E00007C002E4064F02E406CF02E40DC050000007FBB00040301400000014041FF00800003014040FF008008010B4000010B402C0101406B
:400100001C0101400401014010B572B60022374B1A6000240FE036486200131959000B00411889881A5AC31858880004104303F06FFD0134E4B2012CEDD92D490C312D4858
:40014000283003F03BFD802252002B4B1A80FF3A2A4B1A70EE221206294B1A6099231B04284A1360C0218905274A1160274A1360274A1360274A136080210906264A11605C
:40018000264A13608022D205254B1A6025490B783C22934314221343DBB20B70224A117816230B43DBB21370D8231B041F4A136020221F490A60C42080021E4908601E490E
:4001C0000A60A0321D490A60B020C0031C490860802000021B4908601B490A601B4A1360FFF71AFF03F004FD10BDC0466CF02E4070A30100F0A3010000600F4002600F40D7
:4002000000000240000102400003024000500F4010500F4020500F4024500F4030500F4038500F4001700F4000700F4008000440000104400801044018010440000204407E
:40024000080204400C020440000304400803044010B5064C2378002B07D1054B002B02D0044800E000BF0123237010BDC814002000000000C4940100084B10B5002B03D06C
:400280000749084800E000BF07480368002B00D110BD064B002BFBD09847F9E700000000CC140020C4940100400C00200000000010B5012004F058FB10BDC04610B50C4898
:4002C00006F058FC0B4B022252421A717F217F2058711A72597200209872D8721A73597300229A73DA7301F0C9FF04F093FA10BD60960100C42C0020F8B50288D14B1A7187
:40030000120A5A710A889A71120ADA7105880E88AC002C196200B21892B220241A55120A01341A5505880E88AC002C196200B21892B222241A55120A01341A5505880E88BF
:40034000AC002C196200B21892B224241A55120A01341A5505880C88AA00AA1855002A195A7705880C88AA00AA1855002A199A7705880C88AA00AA1855002A19DA77058876
:400380000E88AC002C196200B21892B29A75120ADA7505880E88AC002C196200B21892B29A74120ADA7405880C88AA00AA1855002A191A7605880E88AC002C196200B218DB
:4003C00092B2DA76120A1A7705880E88AC002C196200B21892B21A74120A5A7402889400A41862000C88A2181A72140A5C72140C9C72120EDA7202889400A41862000C8854
:40040000A2181A73140A5C73140C9C73120EDA7305880E88AC002C196200B21892B25A76120A9A7605880E88AC002C196200B21892B21A75120A5A750288834BDA70120AB0
:400440001A710A885A71120A9A7105880C88AA00AA1855002A191A7405880E88AC002C196200B21892B21A75120A5A7505880E88AC002C196200B21892B25A74120A9A7440
:4004800002889400A41862000C88A218DA71150A1D72150C5D72120E9A7205880C88AA00AA1855002A199A7505880C88AA00AA1855002A19DA7405880C88AA00AA18550014
:4004C0002A19DA7502889400A41862000C88A218DA72150A1D73150C5D73120E9A7305880C88AA00AA1855002A19DA730388574AD3701B0A13710A88544B5A71120A9A711A
:4005000005880C88AA00AA1855002A195A7505880C88AA00AA1855002A199A7505880C88AA00AA1855002A19DA7502889400A41862000C88A218DA71150A1D72150C5D72AC
:40054000120E9A7202889400A41862000C88A218DA72150A1D73150C5D73120E9A7305880C88AA00AA1855002A195A7605880C88AA00AA1855002A191A7605880C88AA0037
:40058000AA1855002A199A7405880C88AA00AA1855002A19DA7405880C88AA00AA1855002A191A7505880C88AA00AA1855002A19DA7305880C88AA00AA1855002A191A7487
:4005C00005880C88AA00AA1855002A195A7402881F4B5A71120A9A710A88DA71120A1A7202889400A41862000C88A2181C003E342270150A6570150CA570120EE2700588CA
:400600000E88AC002C196200B21892B246241A55120A1C004634627005880E88AC002C196200B21892B248241A55120A1C004834627005880C88AA00AA1855002A19212417
:400640001A5507E0C42C00201C260020502D0020F02C002005880E88AC002C196200B2181C00353492B22270120A627005880E88AC002C196200B2181C00293492B22270C1
:40068000120A627005880C88AA00AA1855002A1922241A5505880C88AA00AA1855002A1923241A5505880C88AA00AA1855002A1924241A5505880C88AA00AA1855002A1996
:4006C0002E241A5505880C88AA00AA1855002A192F241A5505880C88AA00AA1855002A1930241A5505880C88AA00AA1855002A192B241A5505880C88AA00AA1855002A1962
:400700002C241A5505880C88AA00AA1855002A192D241A5505880E88AC002C196200B21892B25A77120A9A7705880C88AA00AA1855002A1937241A5502889400A418620068
:400740000C88A2185A75150A9D75150CDD75120E1A7605880E88AC002C196200B21892B244241A55120A1C004434627005880C88AA00AA1855002A1920241A5505880E8830
:40078000AC002C196200B2183333FF2414401C7092B2120A5A7005880E88D24BAC002C196200B2181C00273492B22270120A627005880E88AC002C196200B21892B2422407
:4007C0001A55120A1C004234627005880C88AA00AA1855002A19DA7705880E88AC002C196200B2181C00313492B22270120A627005880E88AC002C196200B2181C0025345A
:4008000092B22270120A627005880C88AA00AA1855002A193B241A5505880C88AA00AA1855002A193C241A5505880C88AA00AA1855002A193D241A5502889400A4186200DC
:400840000C88A2185A74150A9D74150CDD74120E1A7505880C88AA00AA1855002A1938241A5506880D88B200B2185600721939255A5506880D88B200B218560072193A25AF
:400880005A5502889500AD186A000D88AA185A72160A9E72160CDE72120E1A7302889500AD186A000D88AA185A73160A9E73160CDE73120E1A7402889500AD186A000D8822
:4008C000AA185A76160A9E76160CDE76120E1A7706880D88B200B218560072194A255A5506880D88B200B218560072194B255A5506880D88B200B218560072194C255A552E
:400900000288794BDA70120A1A710A885A71120A9A7106880D88B200B2185600721923255A5506880F88B50075196A00BA181D00313592B22A70120A6A7006880F88B500A8
:4009400075196A00BA1892B228255A55120A01355A5506880D88B200B2185600721935255A5506880D88B200B218560072192C255A5506880D88B200B218560072191A5574
:4009800005880C88AA00AA1855002A1920241A5505880C88AA00AA1855002A1922241A5505880E88AC002C196200B2181C002F3492B22270120A627005880E88AC002C19EE
:4009C0006200B21892B226241A55120A01341A5505880C88AA00AA1855002A1934241A5505880C88AA00AA1855002A192B241A5505880C88AA00AA1855002A1937241A5550
:400A000005880C88AA00AA1855002A19DA7705880C88AA00AA1855002A1921241A5505880E88AC002C196200B2181C002D3492B22270120A627005880E88AC002C19620070
:400A4000B21892B224241A55120A01341A5505880C88AA00AA1855002A1933241A5505880C88AA00AA1855002A192A241A5505880C88AA00AA1855002A1936241A550588A9
:400A80000C88AA00AA1855002A199A7702889400A41862000C88A218DA71150A1D72150C5D72120E9A7202889400A41862000C88A218DA72150A1D73150C5D73120E9A734B
:400AC00005880C88AA00AA1855002A19DA7305880C88AA00AA1855002A191A7405880C88AA0003E0F02C00207C300020AA1855002A195A7405880C88AA00AA1855002A19CE
:400B00009A7405880C88AA00AA1855002A19DA7405880C88AA00AA1855002A191A7505880C88AA00AA1855002A195A7505880C88AA00AA1855002A199A7505880C88AA008D
:400B4000AA1855002A19DA7505880C88AA00AA1855002A191A7605880C88AA00AA1855002A195A7605880C88AA00AA1855002A199A7605880C88AA00AA1855002A19DA7678
:400B800005880C88AA00AA1855002A191A7705880C88AA00AA1855002A195A7705880C88AA00AA1855002A1939241A5505880C88AA00AA1855002A193A241A5505880C8885
:400BC000AA00AA1855002A193B241A550288CD4B9A70120ADA700A881A71120A5A7105880C88AA00AA1855002A19DA7505880C88AA00AA1855002A191A7605880C88AA0019
:400C0000AA1855002A195A7605880C88AA00AA1855002A191A7505880C88AA00AA1855002A195A7505880C88AA00AA1855002A199A7505880C88AA00AA1855002A195A74BB
:400C400005880C88AA00AA1855002A199A7405880C88AA00AA1855002A19DA7405880C88AA00AA1855002A199A7305880C88AA00AA1855002A19DA7305880C88AA00AA189D
:400C800055002A191A7402889400A41862000C88A2189A71150ADD71150C1D72120E5A7202889400A41862000C88A2189A72150ADD72150C1D73120E5A7305880C88AA0003
:400CC000AA1855002A199A7605880C88AA00AA1855002A19DA7604880A88A300E3185C00A318884A137705880C88874BAA00AA1855002A193D241A5505880C88AA00AA1892
:400D000055002A193E241A5505880C88AA00AA1855002A193F241A5505880C88AA00AA1855002A1940241A5505880C88AA00AA1855002A1934241A5505880C88AA00AA18E2
:400D400055002A1935241A5505880C88AA00AA1855002A1936241A5505880C88AA00AA1855002A192B241A5505880C88AA00AA1855002A192C241A5505880C88AA00AA18D1
:400D800055002A192D241A5505880C88AA00AA1855002A193A241A5505880C88AA00AA1855002A193B241A5505880C88AA00AA1855002A193C241A5505880C88AA00AA1875
:400DC00055002A1931241A5505880C88AA00AA1855002A1932241A5505880C88AA00AA1855002A1933241A5505880C88AA00AA1855002A1928241A5505880C88AA00AA1855
:400E000055002A1929241A5505880C88AA00AA1855002A192A241A5505880C88AA00AA1855002A1937241A5505880C88AA00AA1855002A1938241A5505880C88AA00AA1810
:400E400055002A1939241A5505880C88AA00AA1855002A192E241A5505880C88AA00AA1855002A192F241A5505880C88AA00AA1855002A1930241A5505880C88AA00AA18CC
:400E800055002A1925241A5505880C88AA00AA1855002A1926241A5505880C88AA00AA1855002A1927241A5505880E88AC002C196200B21892B25A76120A9A7605880E8882
:400EC000AC002C196200B21892B220241A55120A01341A5502889400A41862000C88A2181A72140A5C72140C9C72120EDA7202889400A41862000C88A2181A73140A5C737E
:400F000004E0C0463826002074290020140C9C73120EDA7305880E88AC002C196200B21892B21A71120A5A7105880C88AA00AA1855002A195A7705880E88AC002C1962008E
:400F4000B21892B2DA76120A1A7705880E88AC002C196200B21892B29A77120ADA7705880E88AC002C196200B21892B29A71120ADA7105880C88AA00AA1855002A19222403
:400F80001A5505880C88AA00AA1855002A1923241A5505880C88AA00AA1855002A1924241A5505880C88AA00AA1855002A199A7505880C88AA00AA1855002A19DA750588D6
:400FC0000C88AA00AA1855002A191A7605880C88AA00AA1855002A191A7405880C88AA00AA1855002A195A7405880C88AA00AA1855002A199A7405880C88AA00AA1855000E
:401000002A19DA7405880C88AA00AA1855002A191A7505880C88AA00AA1855002A195A7505880C88AA00AA1855002A1941241A5505880C88AA00AA1855002A1942241A5584
:4010400000880988820082185000421843215A540E4B1A78062A17D893000D4AD3589F4601F00CF910E001F069FB0DE001F092FD0AE001F0B1FF07E002F0AAF804E002F0F7
:4010800091F901E002F0A4FBF8BDC0466D290020C894010010B503F0FDFA00235E4A13805E4A13805E4A13805E4A13805E4A138000F0F0FF5D4C2060616000F0F3FF236837
:4010C0001A0704D55A494878012202434A709A0604D557494878022202434A701A0604D553494878042202434A709A0504D550494878082202434A705A0504D54C49487874
:40110000102202434A70DA0404D549494878202202434A701A0404D545494878402202434A701A0305D542494A788020404202434A709A0204D53E498878012202438A70CB
:401140005A0204D53A498878022202438A701B0204D5374A917804230B439370344B02221A7100225A7103329A710022DA7101321A7400225A7402229A740022DA7403221C
:401180001A7500225A7504329A750022DA7505321A7606215976002199760731D9760021197708225A779A77DA770931183299540021013299540A31013299540021013216
:4011C00099540B310132995400210132995401F055F8184A0124644254709470D470147101F0ACFA144B5C709C7001F0D3FC134B5C709C7001F0F0FE114B5C7001F0E8FFC6
:40120000104B5C709C7002F0CDF80F4B5C709C70DC7002F0DDFA10BDEC2C00204C2D0020EE2C002056260020EA2C0020B8300020C42C0020F02C00201C2600207C30002051
:4012400038260020502D002074290020F0B557464E464546E0B486B062B6BA4B1B88002B02D0002002F080FDB74803F0C5FA03F06BFBB64803F000FBB54802F09DFEB14BA3
:401280001880FFF707FF06F011FCB24B1B78022B14D1B14B1B78002B10D003F019FAAF4B1B6880221202134000D001231B18002B04D1002002F0D6FEA24B1880A84B1B88A7
:4012C000002B46D14EE0A7494B465B014A469C1A605C0C1963781B0203431A00A3781B041343E27812061A439046217963791B020B431A00A7793F043B001343E7793F0659
:401300001F43217A637A1B020B431A00A67A360433001343E67A36061E43217B637B1B020B431A00A57B2D042B001343E57B2D061D43210010310F22684605F08EFB404665
:40134000390032002B0001F015FB01239C46E14401E000239946844B1B889945B3DB00227F4B1A80814B1B88002B4ED155E063011B1B7F4AD3185A789B781B0213437B4A0B
:40138000128893423FD17A4D63011B1B585DED186B781B0203431A00AB781B041343EA7812061A43914629796B791B020B431A00AB791B041343EA7912061A439046297AF8
:4013C0006B7A1B020B431A00AF7A3F043B001343EF7A3F061F43297B6B7B1B020B431A00AE7B360433001343EE7B36061E43290010310F22684605F030FB484641463A00BD
:40140000330001F0B7FA013400E00024594B1B889C42ACDB0022554B1A80574B1B78002B4ED155E0554B9A466C01641BE15C544463781B020B431A00A3781B041343E27857
:4014400012061A439146217963791B020B431A00A3791B041343E27912061A439046217A637A1B020B431A00A77A3F043B001343E77A3F061F43217B637B1B020B431A00F5
:40148000A67B360433001343E67B36061E43210010310F22684605F0E0FA484641463A00330001F067FA01356901491B51441F22200005F0D2FA324A1388013B138000E0E5
:4014C00000252F4B1B889D42ACDB00222A4B1A702C4B1B88002B31D02B4B1A882B4B9A4223D11CE063011B1B214AD3185A789B781B021343234A128893420ED163011B1BE6
:401500001B4AD318DA7B08331B7A1B021343162169440B801B48FEF7EFFE013400E00024144B1B889C42DDDB03E017491548FEF7E3FE0023134A1380134A1380032006F0AC
:4015400093FAA0E634260020BD020000B1020000DD150000E2300020C030002008022440F82500205C260020EE2C002064290020742D002056260020B8290020BC290020A1
:40158000EA2C0020442D0020702D0020FFFF000010B5114B1B78042B08D102F0DDFF012003F058F8002003F049F814E0032B08D1012003F04FF8012003F040F803F02EF8AC
:4015C00009E0022B07D102F0C7FF012003F036F8002003F03FF810BDE2300020F0B54F464646C0B4A1B00C00572801D900F0A7FC8000DE4B1B589F46002002F0B1FDDC4852
:4016000005F03CFA06A80023837106F035FA062306E05C1E06AB195DD64805F02FFAE3B2002BF6D1D44805F0A5FAD44805F0A2FAFFF7AEFF0023D24A1360D24A1360D24AC5
:401640001360D24A1360D24A1360D24A1360D24A1360D24A1360D24A1360D24A137000F06EFCD14805F086FAFFF792FF00F067FCFFF78EFFCD4805F07DFACD4B1B78042B5E
:4016800001D000F05CFC012002F0CAFB02F0FEFB00F055FCC74805F06DFA00F050FCB64805F068FA2168C44805F0E8F900F047FC0978C24805F0E2F900F041FC4978227890
:4016C000BF4805F0DBF900F03AFC09786278A378E0780090BB4805F0D1F900F030FC8B89172B15D1B84D081D29332A00002112F0ADFF63681B7801221340A14A13602B7828
:4017000068780002184312F08DF9B04805F032FAA3891B2B15D1AC4D201D25332A00002112F094FF63681B7802221340954A13602B7868780002184312F074F9A44805F0AE
:4017400019FAA3891F2B15D19F4D201D21332A00002112F07BFF63681B78012213408A4A13602B7868780002184312F05BF9994805F000FAA389232B15D1934D201D1D33C8
:401780002A00002112F062FF63681B78022213407E4A13602B7868780002184312F042F98D4805F0E7F9A389272B15D1864D201D19332A00002112F049FF63681B780222CD
:4017C0001340734A13602B7868780002184312F029F9824805F0CEF9A3892B2B15D17A4D201D15332A00002112F030FF63681B7801221340674A13602B78687800021843D4
:4018000012F010F9764805F0B5F9A3892F2B15D16D4D201D11332A00002112F017FF63681B78022213405C4A13602B7868780002184312F0F7F86B4805F09CF9A389332BAC
:4018400015D1614D201D0D332A00002112F0FEFE63681B7802221340504A13602B7868780002184312F0DEF85F4805F083F9A389372B15D1544D201D09332A00002112F081
:40188000E5FE63681B7802221340454A13602B7868780002184312F0C5F8544805F06AF9A3893B2B15D1484D201D05332A00002112F0CCFE63681B7802221340394A137067
:4018C0002B7868780002184312F0ACF8484805F051F9A389322B00D02EE3201D0E333A4A002112F0B3FEA28906AB1A8012229A70636819783F4805F0C1F862681378062B88
:4019000000D904E39B003C49CB589F463B4805F031F9224B1B68002B03D0224B1B78002B0DD1374805F026F906A9FD23CB70264A137850780002184311F0D6FFFFE2314B36
:401940001B88002B03D001222F4B1A80EDE22F4805F010F9E9E29378002B01D154785AE05278002A54D1FF245C4354E0E494010070960100909601000897010098960100ED
:4019800000260020482D0020402D00200426002068290020582600206C2D0020FC250020702900206C290020BC960100E0960100E23000200C970100289701006497010062
:4019C00088970100C0970100E830002014980100549801008C980100D89801001C9901005899010098990100D0990100F8990100249A0100509A010044960100789A010099
:401A00008C9A0100EE2C0020F8250020D89A01001C02A418A4B22100C04805F02FF8C04B1B68002B03D0BF4B1B78002B0DD1BE4805F0A0F806A9FD23CB70BC4A13785078F8
:401A40000002184311F050FF79E2B94B1B88002B03D1B84805F08EF867E2B74B1C80002210000BE053019B1AB449CB1859789B781B020B439C4200D101200132B04B1B8860
:401A80009A42EFDB002800D04FE20022AA4B1A80AC4805F06FF806A98123CB70A34A137850780002184311F01FFF48E29C4B1B68002B0DD1A44805F05DF806A9FD23CB702F
:401AC0009A4A137850780002184311F00DFF36E2974B1888002803D1964805F04BF824E25579062D0DD9994805F044F806A98023CB708E4A137850780002184311F0F4FE92
:401B00001DE29378002B03D15178914B19800BE05178002904D1FF314B438D490B8003E01B025B188A490B801379002B03D1D278884B1A800BE0D278002A04D1FF3253437F
:401B4000844A138003E01B029B18824A1380824B1D7000221600150016E053019B1A7F49CB1859789B781B020B43794909888B4209D153019B1A79495B5C9B0701D4012539
:401B800001E00126002501328242E6DB002E13D06F4C2188724804F071FF002323806D4A138006A98333CB70604A137850780002184311F099FEC2E1002D2FD1644C2188E2
:401BC000684804F05BFF00232380624A138006A98133CB70554A137850780002184311F083FEACE153019B1A5449CB18D97B08331B7A1B020B43574909888B420CD153019F
:401C00009B1A4E49CB1859789B781B020B43504909888B4200D10120013201E000221000474B1B889A42DDDB4A4B19884E4B994200D10120002812D14C4804F01FFF0023BE
:401C4000434A1380434A138006A98133CB70374A137850780002184311F046FE6FE1444804F088FF3A4B1988424804F007FF394B1988414804F002FF636859793F4804F054
:401C8000FDFE52E15378002B00D07FE03C4E3188013189B23180002208A801F019FF244F05976C460BAB07CB07C41A6822609A88A2809B79A3710899099A0A9B274801F0C8
:401CC0003BFE01222F4B1A80398810A801F000FF1A4B99461A4B9846059313AB6A4623CB23C21A6822609A88A2809B79A3711099119A129B484601F01FFE4346188801383C
:401D00001F235843484400F0B5FD43461B883A8831881D4804F0B2FE07E1C046009B0100FC2500206C2900208C9A0100E8300020EE2C0020D89A010064290020742D0020EE
:401D400056260020349B0100809B0100B89B0100442D0020702D00206D2900205C260020D09B0100F89B0100FFFF0000249C0100549C0100709C01006C9C0100849C0100FA
:401D8000EC2C00204C2D0020DC9C0100012B40D16D4B198800292ED06C4D2A88013292B22A8018A801F094FE694C6A4E05966A461BAB83CB83C219681160998891809B7904
:401DC00093711899199A1A9B200001F0B5FD308801381F235843001900F04CFD5E4B1A8829885E4804F04AFE3288574B19885C4804F044FE99E05B4804F0BCFE06A986230C
:401E0000CB70594A137850780002184311F06CFD95E0564804F0AEFE06A98823CB70524A137850780002184311F05EFD87E0504804F0A0FE44494F4801F05AFD00280DD0B8
:401E4000444D434C2900200001F06AFD288801381F235843001900F00DFD66E0464804F089FE06A98723CB703F4A137850780002184311F039FD62E09478002C01D154785D
:401E800008E05378002B02D1FF22544302E02402E418A4B22100394804F0F0FD22002A49344801F06FFD01280FD0002804D002281AD0032827D038E0314804F05BFE220034
:401EC0002449234801F0CCFD2FE021002D4804F0D5FD06A98123CB70234A137850780002184311F001FD2AE02100274804F0C6FD06A98323CB701C4A137850780002184344
:401F000011F0F2FC1BE0214804F034FE0DE0204804F030FE06A98023CB70134A137850780002184311F0E0FC09E00F4A137850780002184311F076FD164804F01BFE21B098
:401F40000CBC90469946F0BDEE2C00204C2D0020742D002056260020EC2C0020309D0100009D0100709D0100E8300020AC9D0100049E01005C260020149E01003C9E010000
:401F80006C9E0100909E0100C09E0100F49E01000C9F0100209F010010B50022064B04F041F90022054B03F019FD02F0F5FC03F0CBF9C0B210BDC0460000F03F0000334027
:401FC00010B584B0140001AA1081019194800A490B78487800021843110011F0CDFC002804D00100054804F049FD03E02100044804F044FD04B010BDE8300020309F010092
:40200000509F010070B584B005000E00140001E005F04CFD05F034FD82235B009842F7D00D4B1B78012BF3D001A901968C800D810A4A137850780002184311F093FC0028D9
:4020400004D00100064804F019FD03E02100054804F014FD04B070BDE4300020E8300020749F0100949F010001700B0A43700B0C8370090EC170704770B51600002405E0C2
:402080004D1C087802F016FB01342900B442F7DB300070BD014802497047C046FF1F0F070301010100B585B001A813230381054B0193082383800023034A002112F0C6FA74
:4020C00005B000BDB8300020E830002070B50500684B5B78DB070DD5674B1B681B070BD5644A137C517C09021943103002F088F8122402E0102400E010245E4B5B789B07E2
:402100000DD55D4B1B689B0609D55A4A937CD17C09021943281902F073F80234E4B2554B5B785B070DD5544B1B681B0609D5514A137D517D09021943281902F061F8023448
:40214000E4B24C4B5B781B070DD54B4B1B689B0509D5484A937DD17D09021943281902F04FF80234E4B2434B5B78DB0608D5424B1B685B0504D53F4B1B7E2B550134E4B251
:402180003C4B5B789B060DD53B4B1B68DB0409D5384A537E917E09021943281902F030F80234E4B2334B5B785B060DD5324B1B681B0409D52F4AD37E117F090219432819F9
:4021C00002F01EF80234E4B22A4B5B785BB2002B11DA294B1B681B030DD5264B1D229A562A55621C1E215956A954A21CDB7F5BB2AB540334E4B21F4B9B78DB070FD51E4B84
:402200001B689B020BD51B4A2023D35C2121515C09021943281901F0F3FF0234E4B2154B9B789B070FD5144B1B685B020BD5114A2223D35C2321515C09021943281901F010
:40224000DFFF0234E4B20B4B9B785B070FD50A4B1B681B020BD5074A2423D35C2521515C09021943281901F0CBFF0234E4B2200070BDC046C42C0020B8300020F0B593B0F4
:402280000FA816230381404B0F932623838000233E4A002112F0DAF93D4B1B68002B71D005AD2800FFF712FF040006000100394804F0E4FB200004F03FFBFFF76DFE010029
:4022C0000700354804F0DAFB2F4C63786B70A378AB70E378EB70237961790902194306A801F08EFFA379E179090219431A20684401F086FF207A637A1B0203431A00A17A23
:4023000009040B001343E17A0906194307A8FFF7ABFE207B637B1B0203431A00A17B09040B001343E17B0906194308A8FFF79CFE0024002524E0002C05D13B007F336A46A8
:402340001370012213E03B1B013B6A461370F8E7E3001B195B001B19D318B34205D205A9CB5C69468B54551CEDB20132D2B2132AEED9AAB269461620FFF722FE0134E4B273
:40238000BC42D8D313B0F0BDC42C0020E830002000260020B49F0100F49F010070B505000E4B5B78DB0716D50D4B1B685B0719D50A4C607CA37C1B0203431A00E17C090408
:4023C0000B001343217D0906194328001130FFF74BFE152407E0112405E0C046F02C0020B83000201124D24B5B789B0715D5D14B1B68DB0611D5CE4E707DB37D1B02034394
:402400001A00F17D09040B001343317E090619432819FFF729FE0434E4B2C54B5B785B0715D5C44B1B685B0611D5C14E707EB37E1B0203431A00F17E09040B001343317F20
:40244000090619432819FFF70FFE0434E4B2B84B5B781B070DD5B74B1B68DB0509D5B44A537F917F09021943281901F0C9FE0234E4B2B04B1B685B051CD5AD4B5B78DB063B
:4024800004D5AB4BDB7F2B550134E4B2A84B5B789B0605D52023A64AD35C2B550134E4B2A34B5B785B0605D52123A14AD35C2B550134E4B29E4B5A789B781B0213431B06B3
:4024C00011D59C4B1B681B050DD5994B22229A5C2A55621C2321595CA954A21C24215B5CAB540334E4B2934B1B68DB041DD5904B9B78DB0705D525238D4AD35C2B55023413
:40250000E4B28B4B9B789B0705D52723884AD35C2B550234E4B2864B9B785B0705D52923834AD35C2B550234E4B2814B9B781B0711D5804B1B689B040DD57D4B2B229A5C94
:402540002A55621C2C21595CA954A21C2D215B5CAB540334E4B2764B9B78DB0611D5754B1B685B040DD5724B2E229A5C2A55621C2F21595CA954A21C30215B5CAB540334B3
:40258000E4B26C4B1B681B0423D5694B9B789B0605D53123664AD35C2B550234E4B2644B9B785B0605D53323614AD35C2B550234E4B25F48417883781B020B431A00C378DF
:4025C0001B0413431B0404D53523C35C2B550234E4B2574BDB78DB0709D5564B1B68DB0305D53723524AD3562B550134E4B2504BDB789B0711D54F4B1B689B030DD54C4B06
:4026000038229A5C2A55621C3921595CA954A21C3A215B5CAB540334E4B2454BDB785B0711D5444B1B685B030DD5414B3B229A5C2A55621C3C21595CA954A21C3D215B5C6A
:40264000AB540334E4B23A4BDB781B0719D5394B1B68DB0215D5364E3E23F05C0133F35C1B0203431A004023F15C09040B0013434122B15C090619432819FFF7F5FC04344E
:40268000E4B22C4B1B685B021DD5294BDB78DB0605D54223264AD35C2B550234E4B2244BDB789B0605D54423214AD35C2B550234E4B21F4BDB785B0605D546231C4AD35CE9
:4026C0002B550234E4B21A4E7078B27812020243F3781B0413431A0033791B0613431B020ED5144B1B681B020AD54823F35C4921715C09021943281901F082FD0234E4B2EB
:402700000B4B1B79DB0717D50A4B1B68DB0113D5074B4A229A5C2A55621C4B21595CA954A21C4C215B5CAB540334E4B204E0C046F02C0020B8300020200070BDF0B59DB05B
:4027400019A816230381464B19934D2383800023444A002111F07AFF434B1B68002B7DD005A8FFF71BFE0400060001003F4804F085F9200004F0E0F8FFF70EFC01000700A2
:402780003B4804F07BF9364C6078A3781B0203431A00E17809040B00134321790906194315206844FFF760FC6379A179090219431920684401F024FDE379217A090219438B
:4027C0001B20684401F01CFD607AA37A1B0203431A00E17A09040B001343217B090619431D206844FFF740FC607BA37B1B0203431A00E17B09040B001343217C0906194341
:4028000021206844FFF730FC0024002524E0002C05D13B007F336A461370012213E03B1B013B6A461370F8E7E3001B195B001B19D318B34205D205A9CB5C69468B54551C2F
:40284000EDB20132D2B2132AEED9AAB269461A20FFF7D8FB0134E4B2BC42D8D31DB0F0BDF02C0020E8300020482D002024A001005CA0010030B585B003789B0705D5384AA4
:40288000117801230B43137004E0354A137801218B4313704378827812021A43304B5A70120A9A70C578017909022943427912040A431100827912060A43DA70140A1C71F6
:4028C000140C5C71120E9A71C179027A12020A43DA71120A1A72C17B027C12020A435A72120A9A72C578017909022943427912040A431100827912060A43DA72140A1C73F1
:40290000140C5C73120E9A73C179027A12020A43DA73120A1A74417F827F12020A435A74120A9A7401A83622028101931323838000230C4A002111F089FE0B4B1B78002BCC
:402940000CD10A4B1B68022B08D11321084804F095F8132202493620FFF754FB05B030BD08260020E8300020E43000207029002084A0010084B010B588B00A900B910C923D
:402980000D9305A83A2303810AAB05931F2383800023454A002111F059FE444B1B78022B7CD10AAB1B786A4613700A9B1902090C501C01F025FC0AAB1B78DB0728D50AABE6
:4029C000DB780B9A110219436B46D81CFFF74CFB0AAAD379117A090219436B46D81D01F00FFC0AAB1B789B0744D40C9B1B0A0AAA117B0906194309206844FFF735FB0D9BDE
:402A0000190209140D206844FFF72EFB0F2434E00AAAD37B117C090219436B46D81C01F0EFFB0E9B1B0A0AAA117D090619436B46581DFFF719FB0F9B1902090C092068444F
:402A400001F0DEFB0AAB1B789B0715D40AABDB7D109A110219430B206844FFF705FB0AAAD37E117F090219430F20684401F0C8FB112402E0092400E00B24119B1902090C0C
:402A80002000684401F0BCFB02342100084803F0F5FFA2B269463A20FFF7B4FA08B010BC08BC04B01847C046E83000206C290020A4A0010070B50500344B5B789B0708D585
:402AC000334B1B685B0006D5304BDB7BC373102402E00F2400E00F242C4B5B789B0708D52B4B1B68002B04DA284B1B7C2B550134E4B2264B5B789B070DD5254B5B68DB073F
:402B000009D5224A537C917C09021943281901F077FB0234E4B21D4B5B789B0708D51C4B5B689B0704D5194BDB7C2B550134E4B2164B5B789B070DD5154B5B685B0709D518
:402B4000124A137D517D09021943281901F058FB0234E4B20D4B5B789B0708D50C4B5B681B0704D5094B9B7D2B550134E4B2074B5B789B0708D5064B5B68DB0604D5034BAD
:402B8000DB7D2B550134E4B2200070BD1C260020B8300020F0B58FB00BA81E230381424B0B93182383800023404A002111F04EFD3F4B1B68002B75D005A8FFF77BFF04003E
:402BC000060001003B4803F059FF200003F0B4FEFFF7E2F901000700374803F04FFF324C6378A178090219431520684401F008FBE3782179090219431720684401F000FBC9
:402C00006379A179090219431920684401F0F8FAE079237A1B0203431A00617A09040B001343A17A090619431B206844FFF71CFAE07A237B1B0203431A00617B09040B00D1
:402C40001343A17B090619431F206844FFF70CFA0024002524E0002C05D13B007F336A461370012213E03B1B013B6A461370F8E7E3001B195B001B19D318B34205D205A95C
:402C8000CB5C69468B54551CEDB20132D2B2132AEED9AAB269461E20FFF792F90134E4B2BC42D8D30FB0F0BD1C260020E8300020402D0020C4A001000CA1010070B5050086
:402CC000C34B5B789B070CD5C24B1B689B010AD5BF4BDA7BC2731A7C02745B7C4374122402E00F2400E00F24B94B5B789B070ED5B84B1B685B010AD5B54B9A7C2A55621CA9
:402D0000D97CA954A21C1B7DAB540334E4B2B04B5B789B070ED5AF4B1B681B010AD5AC4B5A7D2A55621C997DA954A21CDB7DAB540334E4B2A64B5B789B070ED5A54B1B68D8
:402D4000DB000AD5A24B1A7E2A55621C597EA954A21C9B7EAB540334E4B29D4B5B789B070ED59C4B1B689B000AD5994BDA7E2A55621C197FA954A21C5B7FAB540334E4B24A
:402D8000944B1B685B001BD5914B5B789B0704D58F4BDB7F2B550134E4B28D4B5B789B0704D58B4BDB7F2B550134E4B2884B5B789B0705D52023864AD35C2B550134E4B26D
:402DC000844B1B68002B1DDA814B5B789B0705D521237F4AD35C2B550134E4B27C4B5B789B0705D522237A4AD35C2B550134E4B2774B5B789B0705D52323754AD35C2B555F
:402E00000134E4B2734B5B68DB072FD5704B5B789B070BD56E4A2423D35C2521515C09021943281901F0ECF90234E4B2684B5B789B070BD5664A2623D35C2721515C0902B5
:402E40001943281901F0DCF90234E4B2604B5B789B070BD55E4A2823D35C2921515C09021943281901F0CCF90234E4B2594B5B689B071DD5564B5B789B0705D52A23544A0A
:402E8000D35C2B550134E4B2514B5B789B0705D52B234F4AD35C2B550134E4B24C4B5B789B0705D52C234A4AD35C2B550134E4B2484B5B685B072FD5454B5B789B070BD568
:402EC000434A2D23D35C2E21515C09021943281901F096F90234E4B23D4B5B789B070BD53B4A2F23D35C3021515C09021943281901F086F90234E4B2354B5B789B070BD53C
:402F0000334A3123D35C3221515C09021943281901F076F90234E4B22E4B5B681B071DD52B4B5B789B0705D53323294AD35C2B550134E4B2264B5B789B0705D53423244AE0
:402F4000D35C2B550134E4B2214B5B789B0705D535231F4AD35C2B550134E4B21D4B5B68DB061DD51A4B5B789B0705D53623184AD35C2B550134E4B2154B5B789B0705D54B
:402F80003723134AD35C2B550134E4B2104B5B789B0705D538230E4AD35C2B550134E4B20B4B5B789B0711D50A4B1B68DB010DD5074B39229A5C2A55621C3A21595CA95415
:402FC000A21C3B215B5CAB540334E4B2200070BD7C300020B8300020F0B599B015A822230381424B15933C2383800023404A002111F02CFB3F4B1B68002B75D006A8FFF7F1
:403000005DFE0400060001003B4803F037FD200003F092FCFEF7C0FF01000700374803F02DFD324C6378A178090219431920684401F0E6F8E3782179090219431B206844B7
:4030400001F0DEF86379A179090219431D20684401F0D6F8E079237A1B0203431A00617A09040B001343A17A090619431F206844FEF7FAFFE07A237B1B0203431A00617B18
:4030800009040B001343A17B0906194323206844FEF7EAFF0024002524E0002C05D101AA3B007F331370012213E03B1B013B01AA1370F8E7E3001B195B001B19D318B342A9
:4030C00005D206A9C95C01AB9954551CEDB20132D2B2132AEED9AAB201A92220FEF792FF0134E4B2BC42D8D319B0F0BD7C300020E83000200426002044A1010088A10100AB
:4031000010B50300304A527892070CD52F4A526892060AD52C4A917B8173D17BC173127C0274112002E00E2000E00E20264A527892070ED5254A526852060AD5224A517CC7
:403140001954411C947C5C54811CD27C5A540330C0B21D4A527892070ED51C4A526812060AD5194A117D1954411C547D5C54811C927D5A540330C0B2134A527892070ED5E5
:40318000124A126812050AD50F4AD17D1954411C147E5C54811C527E5A540330C0B20A4A527892070ED5094A1268D2010AD5064A917E1954411CD47E5C54811C127F5A54B0
:4031C0000330C0B210BDC04638260020B8300020F0B591B00DA8262303813F4B0D931D23838000233D4A002111F030FA3C4B1B68002B6FD005AD2800FFF782FF0400060037
:403200000100384803F03AFC200003F095FBFEF7C3FE01000700344803F030FC2E4C63786B70A378E178090219431620684400F0E7FF237961790902194306A800F0E0FFCB
:40324000A079E3791B0203431A00217A09040B001343617A090619431A206844FEF704FFA07AE37A1B0203431A00217B09040B001343617B090619431E206844FEF7F4FE19
:403280000024002524E0002C05D13B007F336A461370012213E03B1B013B6A461370F8E7E3001B195B001B19D318B34205D205A9CB5C69468B54551CEDB20132D2B2132A21
:4032C000EED9AAB269462620FEF79CFE0134E4B2BC42D8D311B0F0BD38260020E830002068290020BCA10100F8A1010010B503002A4A527892070CD5294A526892030AD5C5
:40330000264AD17BC173117C0174527C4274122002E00F2000E00F20204A527892070ED51F4A526852030AD51C4A917C1954411CD47C5C54811C127D5A540330C0B2174AA1
:40334000527892070ED5164A526812030AD5134A517D1954411C947D5C54811CD27D5A540330C0B20D4A5278920708D50C4A5268D20204D5094A127E1A540130C0B2074A6B
:403380005278920708D5064A5268920204D5034A527E1A540130C0B210BDC046502D0020B8300020F0B591B00DA82A230381424B0D931A2383800023404A002111F046F9C9
:4033C0003F4B1B68002B75D006A8FFF78FFF0400060001003B4803F051FB200003F0ACFAFEF7DAFD01000700374803F047FB324C6378A178090219431920684400F000FF63
:40340000E3782179090219431B20684400F0F8FE6379A179090219431D20684400F0F0FEE079237A1B0203431A00617A09040B001343A17A090619431F206844FEF714FE0B
:40344000E07A237B1B0203431A00617B09040B001343A17B0906194323206844FEF704FE0024002524E0002C05D101AA3B007F331370012213E03B1B013B01AA1370F8E701
:40348000E3001B195B001B19D318B34205D206A9C95C01AB9954551CEDB20132D2B2132AEED9AAB201A92A20FEF78AFD0134E4B2BC42D8D311B0F0BD502D0020E8300020F4
:4034C0005826002024A2010060A2010070B50500BD4B5B789B070CD5BC4B5B68DB050AD5B94B1A7C02745A7C42749B7C8374132402E0102400E01024B34B5B789B070ED5F2
:40350000B24B5B689B050AD5AF4BDA7C2A55621C197DA954A21C5B7DAB540334E4B2AA4B5B789B070ED5A94B5B685B050AD5A64B9A7D2A55621CD97DA954A21C1B7EAB5419
:403540000334E4B2A04B5B789B070DD59F4B5B681B0509D59C4A537E917E09021943281900F04EFE0234E4B2974B5B789B070DD5964B5B68DB0409D5934AD37E117F0902B8
:403580001943281900F03CFE0234E4B28E4B5B789B0708D58D4B5B689B0404D58A4B5B7F2B550134E4B2884B5B789B070DD5874B5B685B0409D5844A937FD17F09021943AD
:4035C000281900F01DFE0234E4B27F4B5B789B070FD57E4B5B681B040BD57B4A2023D35C2121515C09021943281900F009FE0234E4B2754B9B78DB0711D5744B5B68DB0379
:403600000DD5714B22229A5C2A55621C2321595CA954A21C24215B5CAB540334E4B26B4B5B689B0335D5684B9B78DB070DD5664B25229A5C2A55621C2621595CA954A21CEC
:4036400027215B5CAB540334E4B25F4B9B78DB070DD55D4B28229A5C2A55621C2921595CA954A21C2A215B5CAB540334E4B2564B9B78DB070DD5544B2B229A5C2A55621C3A
:403680002C21595CA954A21C2D215B5CAB540334E4B24E4B5B685B0335D54B4B9B78DB070DD5494B2E229A5C2A55621C2F21595CA954A21C30215B5CAB540334E4B2424B53
:4036C0009B78DB070DD5404B31229A5C2A55621C3221595CA954A21C33215B5CAB540334E4B2394B9B78DB070DD5374B34229A5C2A55621C3521595CA954A21C36215B5C8E
:40370000AB540334E4B2314B5B681B0335D52E4B9B78DB070DD52C4B37229A5C2A55621C3821595CA954A21C39215B5CAB540334E4B2254B9B78DB070DD5234B3A229A5C96
:403740002A55621C3B21595CA954A21C3C215B5CAB540334E4B21C4B9B78DB070DD51A4B3D229A5C2A55621C3E21595CA954A21C3F215B5CAB540334E4B2134B9B78DB07A6
:4037800009D5124B5B689B0205D540230E4AD35C2B550134E4B20C4B9B78DB0711D50B4B1B68DB010DD5084B41229A5C2A55621C4221595CA954A21C43215B5CAB540334C9
:4037C000E4B2200070BDC04674290020B8300020F0B59BB017A82E230381404B17934423838000233E4A002110F030FF3D4B1B68002B71D006AD2800FFF768FE0400060045
:403800000100394803F03AF9200003F095F8FEF7C3FB01000700354803F030F92F4C63786B70A378AB70E378EB70237961790902194307A800F0E4FCA379E1790902194396
:403840001E20684400F0DCFC207A637A1B0203431A00A17A09040B001343E17A0906194308A8FEF701FC207B637B1B0203431A00A17B09040B001343E17B0906194309A8B9
:40388000FEF7F2FB0024002524E0002C05D101AA3B007F331370012213E03B1B013B01AA1370F8E7E3001B195B001B19D318B34205D206A9C95C01AB9954551CEDB20132FA
:4038C000D2B2132AEED9AAB201A92E20FEF79AFB0134E4B2BC42D8D31BB0F0BD74290020E83000206C2D00208CA20100C4A2010070B5002300250DE05A01D21A821814786B
:40390000E60705D5A60703D502256C40147001250133DBB29AB20C88A242EDD3280070BD0A8853019B1A1F3BC0180378DA0702D4022253400370704784B070B50500059150
:40394000069207930D9C002C0AD005AB1B78DB0702D52100FFF7CCFF21002800FFF7E0FF2088182809D84301181A28181F2205A903F073F823880133238070BC08BC04B078
:403980001847C046F0B557464E464546E0B406000F0090460B88002B45D1032052E06C01641B34196378A17809021943414538D123789B0733D4E37B227C12021A43244859
:4039C00003F05CF82278042353402370214B9A461B88994658194301181A1F4BC0181F22210003F03AF84B4601335246138001221A4B1A702B000AE05801C01A30185C1C11
:403A00006101091B71181F2203F027F823003A889342F1DB013A3A800122012001E001220020013502E00025002200203B889D42B5DB002A03D0002803D0002002E0012075
:403A400000E002201CBC90469946A246F0BDC046ECA20100EA2C0020BC290020B8290020F0B5474680B406000F009046002527E06C01641B34196378A178090219434145BA
:403A80001DD1E37B227C12021A43104802F0F6FF22780423534023702B000AE05801C01A30185C1C6101091B71181F2202F0D5FF23003A889342F1DB013D013A3A80013578
:403AC0003B889D42D4DB04BC9046F0BD2CA30100F0B54170090A8170C273130A0374002A35D1032303707832C270223A0271223A4271223A82712223C37103722123437286
:403B0000313282722232C272DE3A0273442244234373827378234374562181743421C17412210175427582754F235B42C3757F220276463A4276343A82764D235B42C376BE
:403B4000623303776B3B43770022827734E002230370222252429446C27044277F420771662676424671782282716623C371037279256D42457257246442847235214942D1
:403B8000C1728B3A0273772343738373634643748774C6747826067578235B4243758375C57504764176827667235B42C37603771133437700228277F0BDC046F0B50025E9
:403BC000002711E0BB00C658F3B2FF22964308E06A008A181478A419527822700135013BDBB2002BF4D10137042FEBD9F0BDC0460323044A1360044A13600022034B1A6039
:403C00007047C0463000304030003140000E3F4010B50A00002102F029FF10BD10B502F0E1FE03680C2B00D1FEE7FEE710B50300094A1068C318094A9A1A8021C9008A42A4
:403C400002DC054A136005E002F0CCFE0C2303600120404210BDC046440C0020F030002070B50F4E0F4D13E029686B68AC68002202E001C901C30432A242FAD1E868002219
:403C800002E0002102C304328242FAD11035013E002EE9D102F0ACFEFDF7D8FAFEE7C04601000000E8AA010010B50E4A136801218B43136000230AE0032B03D89A000A492C
:403CC000505800E009489900094A885001332F2BF2D9FCF719FA034A116801230B43136010BDC04600001040000000001D3C00000000002010B586B0040000F046FE0E4BF5
:403D00001B6800930D4B1B680193033C0C4B1B5D02930C4B1B68039304AA0B4B04936B4605930A4B1A600A490A4A11601B6800F030FE06B010BDC04608010B4000010B4056
:403D40002CA4010030001040B6EA0000080010401700008004001040024B1B68012018407047C0460C002E4001BE704710B5040006E0084B586800F0FFFD074B9C4664448F
:403D800080231B029C42F4D8024B9868604300F0F3FD10BD480C00200080FFFF10B5034B1B7B584300F0E8FD10BDC046480C002010B504000F4A116801230B4313600E4AD2
:403DC0000E4B1A600E4A1368802109020B431360002809D100200CE00120FFF7DFFFFFF7BBFF002804D1013C002CF5D1102000E0002010BD60F02E400220000078002E400E
:403E000010002E4010B500F0C0FD044A136804218B43136030BF00F0BCFD10BD10ED00E010B5040000F0B1FD002C05D0074B1B6880225202134303E0044B1A68044B134042
:403E4000024A136000F0A5FD10BDC0462C000B40FFFFFEFF10B500F098FD094B1B689B030AD4074B1968074A0A4007490A431A601A681A681A681A6000F08BFD10BDC0463F
:403E80002C000B40FF000100003A028010B500F07CFD094C226880235B021340F22213432360FFF7D7FF23688022120613432360C046C04630BF10BD2C000B4010B50D4B3C
:403EC0001A6801218A431A601A68022082431A60094A10683024A043203C204310601068093CA043014311601A68802109060A431A6010BD00F02E4000FF2E4070B51D4B50
:403F00001B6801241C40002802D0012816D02BE0184B19680122914319601968022081431960154B19682E3081432038014319601968093881430A431A6018E00D4B1A68FE
:403F400002218A431A600C4A10680725A84301431160116830208143103801431160196801220A431A6002E00020FFF7FDFE200070BDC04600F02E4000FF2E4010B500F082
:403F8000DFFA10BD10B50024064B1C70064B1C70064B1C70FFF7F2FF054B1C70054B1C7010BDC046EB300020E4300020EA300020C0300020C830002010B590B00400142259
:403FC0001F490BA802F049FD1E4B1B78002B04D1FFF7D8FF01221B4B1A70002C2DD01A4B1C6008A805AA426006AB0893002101811B31198059801739197100231370123117
:40400000694403F02FFE002818D1104B0293104B0193052300930BABAE2212010D490E4803F076FD002809D101220C4B1A704C323C210B4810F0F2FA00E0012010B010BDAF
:404040005CA40100E4140020C43000207902000080B30100C0000020CD420000E230002070A4010010B59CB00400374B1B78DB070BD50BF077FB00280AD1334A13780121A8
:404080008B4313709B0702D402E0002000E02820002801D0002C1BD02B4B1B789B0717D52A4B1B78042B13D816214B439E2292009918274A891801312300162225480BF075
:4040C00037FB002804D1204A137802218B431370002801D0002C35D01B4B1B780C221A4230D01B0712D562320021684602F0BEFC23006E22184968460BF01AFB002821D177
:40410000114A137808218B4313701BE016220021684602F0ABFC114B5978162359439E239B009C4661440A4BC91801312300162268460BF0FDFA002804D1034A1378042142
:404140008B4313701CB010BDC0300020E830002080B30100CC300020F9B50100E414002010B5022833D81E4B1B78042B31D11D4B1B785B0730D400280BD11B4B1A00403278
:40418000002111822022596C0A805B6C10325A800EE001280CD1144B1A00403296211182C822D200596C0A805B6C8022D2015A800E4B18700C4840300EF04AFA00280DD1A0
:4041C000084A117804230B43DBB2137006E0012004E00420FF3001E00420FF3010BDC046E2300020EB3000205C0C0020EA3000207047C04603784078000218437047C046E1
:404200000170090A4170704770B5050083890F2B1FD1043031332A00002110F017FA041E11D16868FFF7E6FF830706D50A4B1B68290082204000984705E0074B1B68290085
:404240000620FF309847054A137801218B43137000E00024200070BDC4300020EB300020024B00225A701A707047C046E830002010B582B00400FFF7C7FF0A4B1B78DB07E4
:404280000ED4002809D001A912238B70A3890B80C87020680FF028FB02E020680FF0C2FB02B010BDEB3000208379002B07D000200BE0C25C002A07D10133DBB200E00023DB
:4042C000052BF6D9002000E001207047F0B583B004000D008B4A117801230B43DBB21370272800D1A2E011D8062866D004D8012821D005285DD0F3E0242800D192E026282F
:4043000000D19BE0212800D0EAE06BE0422800D1D2E006D8282800D18CE0412800D1B5E0DEE04C2800D1D2E0FA2800D1D3E0432800D0D5E0C3E001AE072737700023737064
:40434000300005F073FC377001237370300005F06DFC03F085FB6C4B1E683000FFF7A4FF00280CD0300003F0A5FB674E00213068FFF73EFF30680121FFF73AFF0BE0634E07
:40438000300003F097FB00213000FFF731FF01213000FFF72DFF03200DF0EEFF01A83F230370002343700EF005F80422584B1A7096E02A78574B1A7092E02B78002B00D05A
:4043C0008EE06B78002B07D1534B0522DA804B329A80524A1A606B604A4A137801218B4313707DE0474B1B789B0679D44C4B1B78102B02D105224A4BDA704A4B18784849DC
:404400000EF0E4F801AB1880002804D0464B1B6801A9362098473B4A117801230B43DBB213705DE06A78414B1A7059E00222384B1A7055E00422364B1A7051E0344B1B7897
:40444000022B4DD02F4A1278D20749D52D4A1278520708D503222E4B1A702A4A137804218B4313703CE0274A1278120708D50422274B1A70234A137808218B4313702FE074
:40448000032B2DD10422224B1A7029E0254E02222900300002F0E1FA00221E4B1A70317816235943224B5918224B9C4661441632214802F0D2FA13E0FFF7D2FE10E069887F
:4044C000162900D9172128880FF018FA08E02800FFF7CEFE04E0194A117801230B431370084B1A7811231A4209D0064A137801218B4313700C4B1B6829002000984703B0C3
:40450000F0BDC046EB300020B00C0020B40C0020E2300020E4300020E8140020A00B002038110020E8300020C4300020C830002080B3010079020000CC300020C0300020DC
:404540007047C046034A117880235B420B43DBB21370704773000F40024A11787F230B401370704773000F40014B18707047C04603000F40014B18707047C04643000F40CD
:40458000014B18707047C04623000F40014B18707047C04683000F40014B1878C0B2704763000F40014B1878C0B2704753000F4010B501E0FFF7F6FFFFF7EEFFC306F9D42D
:4045C00010BDC04610B513490B783F22934309221343DBB20B70104C227801231343DBB22370FF20FFF7C0FFFF20FFF7C3FF7F20FFF7C6FF0020FFF7C9FF00F0C6F92278C8
:4046000010231343DBB2237000F0C3F9FFF7D0FF10BDC04673000F4093000F4010B5064B1B78002B04D1FFF7CDFF0122024B1A70FFF788FF10BDC046F014002004490A6851
:40464000D2B240239A43800118401043086070470002044004490A68D2B240239A43800118401043086070470003044010B500F089F810BD10B500F033F810BD10B5044A0D
:404680001368802109060B431360FFF7EFFF10BD0000244010B5064B1B78002B04D1FFF7E9FF0122024B1A70FFF7E8FF10BDC046F2140020044B1B681F221340082BF9D040
:4046C000024B18607047C0460802244040022440024B1B681F2018407047C0460802244010B5154A154B1A600023154A13600121144A1160144A15480260072414480460A6
:40470000144803601448016014490A60144A13600421144A1160144A1360144A1360144A1360144A1360144A1360144A13601268134B1A8010BDC0460F00000200002440D1
:4047400040002440480024400700008000032440040324401003244044002440000224400402244050002440880E2440C80E2440480F2440080F2440C80F2440880F24404D
:40478000F4140020064A1168064B0B40902109040B431360044B1A88044B1A607047C04600010240FFFF0FFFF4140020880F2440014B98647047C0460000002010B5040016
:4047C00000F0E3F8044A1168044B0B40A4051C43146000F0DEF810BD00E400E0FFFF3FFF0422014B1A60704700E100E00422014B1A60704780E100E010B50400FFF7F6FF82
:404800002000FFF7D5FF0320FFF7D8FFFFF7E8FF10BDC046034B1868C0B27F2290431860C0097047100204408423014AD05070470000002010B5040000F0A7F8044A1168E4
:40484000044B0B40A4031C43146000F0A2F810BD10E400E0FF3FFFFF80229202014B1A607047C04600E100E080229202014B1A607047C04680E100E010B50400FFF7F4FF97
:404880002000FFF7D1FF0320FFF7D4FFFFF7E4FF10BDC0460004000C014B18607047C046080120400004000C014B18607047C046140120400004000C014B18607047C046E9
:4048C0000C01204070B504000D0000F05EF8AC40024B1C6000F05DF870BDC0460800204010B500F052F8064A116801230B43136000F04FF818210120FFF7E4FF10BDC04650
:4049000000002040014B18607047C0463801204010B5802252020A4B1A600C22094B1A600120FFF7EFFFFA24A4002000FFF7BAFF7820FFF7BFFF2000FFF7ACFF10BDC04601
:40494000000120402401204010B5064B1B78002B04D1FFF7DDFF0122024B1A70FFF7C0FF10BDC046F6140020014B18607047C04630012040000000000230800803D0013852
:40498000FDD1C046C046C0467047EFF3108072B6704780F310887047444AF8B5564692464B005B0D9A4444465F464D465246F0B4884605000C000E000700132A27DC002AB1
:4049C00059DB52463A4B134199460B004A461340034316D0374A384B00F0D4FC0022002300F09EFC00280AD0002C04DD802352465B031341984446464B4600279E43380051
:404A000031003CBC90469946A246AB46F8BD5246332A08DD8023DB009A45F2D102000B0000F0B0FCEDE7254A9446012263445242DA4093460242E4D01E4A1F4B00F0A2FCA1
:404A40000022002300F06CFC0028D8D0002C0CDD5346142B26D03423524601279B1A9F407F19AF429B415B4298445B4646469F4338003100C5E70F4A0F4B00F083FC0022F5
:404A8000002300F04DFC0028B9D0002C06DB2C4300270026002CB2D0094EB0E7802600273606ACE7133B9C46E044DEE701FCFFFFFFFF0F009C7500883CE4377EEDFBFFFF73
:404AC0000000F03FF0B557464E464546E0B4A0B080460E0017008A18204B9A422FD8CB099946DC0100239C46002522E0B4420CD3BD420AD24246515D6A46D1542278D2B2D2
:404B00008A4200D00120013502E022786946CA540134013301E0002000237F2BE6D9002804D06946484600F0BFF9844601239A46D144BD4205D26346002BECD001E0012314
:404B40009C466346012B02D901235B429C46604620B01CBC90469946A246F0BDFFFF01000160704701607047324B1A781202324B1B781A43314B1B781B02314909780B4334
:404B800030498B4201D1072A06D0D42109018B4206D1042A04D102E02B4B042200E02A4B2A490B602A4B1A602A4B1B781B022A4A1278134380229201934202D0002B02D03E
:404BC00002E0264B00E0254B254A1360254B1B781B02254A12781343244A934205D0244A934204D0052B05D103E0224B02E0214B00E0204B204A1360204B1B681B09204A4A
:404C00001268AA2A15D1012B13D9164B1B780E2B0FD11C4B1B781B021B4A127813431B4A13601B4B1B781B021A4A127813431A4A13607047D9F0FF0FD8F0FF0FDFF0FF0F75
:404C4000DEF0FF0F580B0000580D00006C002E4074002E40DBF0FF0FDAF0FF0F0220000078002E40DDF0FF0FDCF0FF0F0F0F000005050000050F000080002E40EC0F00F051
:404C8000E00F00F06DF2FF0F6CF2FF0F84002E406FF2FF0F6EF2FF0F94002E4010B5FFF77DF810BD10B5FFF761F810BD10B500F04BF810BD10B500F04FF810BD10B500F04A
:404CC0004BF8034800F02AF8002000F02DF810BDD94F000010B5024800F046F810BDC046D94F00000220FF307047C0462B2070472B2070472B2070472B2070472B2070479A
:404D00002B2070472B2070472B2070472B2070472B2070472B2070477047C046014B18677047C0460000002010B50400FFF72DFE044A1368C0218B43A4011C431460FFF732
:404D400028FE10BD0CE400E080225201014B1A607047C04600E100E080225201014B1A607047C04680E100E010B50400FFF7F4FF2000FFF7D3FF0020FFF7D6FFFFF7E4FF20
:404D800010BDC04682B0144B0093144B04330193134B6A461A601349134A1160C0461B681B0F1B07F0221206934204D10C4B1B68FF2018400DE00A4B1B681B0F1B07A02253
:404DC0001206934204D0064B1B68FF20184000E0002002B07047C046B6E90000DC250020080010401600008004001040104B114A1A601149114A1160C0461B681B0F1B070B
:404E0000F0221206934204D1094B1B68FF2018400DE0074B1B681B0F1B07A0221206934204D0034B1B68FF20184000E00020704708001040B6E800001500008004001040E1
:404E400082B0144B0093144B04330193134B6A461A601349134A1160C0461B681B0F1B07F0221206934204D10C4B1B68FF2018400DE00A4B1B681B0F1B07A0221206934278
:404E800004D0064B1B68FF20184000E0002002B07047C046B6EA0000DC25002008001040170000800400104030B5A5B004000023239322933F4B984277D8002975D08022D1
:404EC00002A801F0CAFD3C4B9C4201D93B4B00E03B4B00937F2301933A4B6A461A603A493A4A1160C0461B681B0F1B07F0221206934204D1334B1B68FF2213400DE0314BAE
:404F00001B681B0F1B07A0221206934204D02D4B1B68FF22134000E000232393239B002B45D1FFF732FD0500FFF72CFF2290229B002B02D1FFF75AFF2390239B002B25D15F
:404F4000234A0092009A2404144300941D4A6946116020481D490860C0461268120F1207F02109068A4204D1164B1B68FF2213400BE0144A1268120F1207A02109068A425C
:404F800003D0104B1B68FF2213402393229B002B07D1FFF755FF2290229B002B01D0229B23932800FFF7F5FC01E004232393239825B030BDFF030000FF010000B6D7000154
:404FC000B6D70000080010400400008004001040B6D800000500008010B514F05FFA10BD002243088B4274D303098B425FD3030A8B4244D3030B8B4228D3030C8B420DD3E3
:40500000FF22090212BA030C8B4202D31212090265D0030B8B4219D300E0090AC30B8B4201D3CB03C01A5241830B8B4201D38B03C01A5241430B8B4201D34B03C01A52412B
:40504000030B8B4201D30B03C01A5241C30A8B4201D3CB02C01A5241830A8B4201D38B02C01A5241430A8B4201D34B02C01A5241030A8B4201D30B02C01A5241CDD2C309FB
:405080008B4201D3CB01C01A524183098B4201D38B01C01A524143098B4201D34B01C01A524103098B4201D30B01C01A5241C3088B4201D3CB00C01A524183088B4201D354
:4050C0008B00C01A524143088B4201D34B00C01A5241411A00D20146524110467047FFE701B5002000F0F0F802BDC0460029F7D076E7704703460B437FD4002243088B427F
:4051000074D303098B425FD3030A8B4244D3030B8B4228D3030C8B420DD3FF22090212BA030C8B4202D31212090265D0030B8B4219D300E0090AC30B8B4201D3CB03C01ABC
:405140005241830B8B4201D38B03C01A5241430B8B4201D34B03C01A5241030B8B4201D30B03C01A5241C30A8B4201D3CB02C01A5241830A8B4201D38B02C01A5241430A81
:405180008B4201D34B02C01A5241030A8B4201D30B02C01A5241CDD2C3098B4201D3CB01C01A524183098B4201D38B01C01A524143098B4201D34B01C01A524103098B4282
:4051C00001D30B01C01A5241C3088B4201D3CB00C01A524183088B4201D38B00C01A524143088B4201D34B00C01A5241411A00D201465241104670475DE0CA0F00D0494271
:40520000031000D34042534000229C4603098B422DD3030A8B4212D3FC22890112BA030A8B420CD3890192118B4208D3890192118B4204D389013AD0921100E08909C3098F
:405240008B4201D3CB01C01A524183098B4201D38B01C01A524143098B4201D34B01C01A524103098B4201D30B01C01A5241C3088B4201D3CB00C01A524183088B4201D392
:405280008B00C01A5241D9D243088B4201D34B00C01A5241411A00D20146634652415B10104601D34042002B00D54942704763465B1000D3404201B5002000F005F802BDB3
:4052C0000029F8D016E770477047C0468446101C62468C46191C634600E0C0461FB500F037FF002801D40021C8421FBD10B500F08BFE4042013010BD10B500F029FF002857
:4053000001DB002010BD012010BDC04610B500F01FFF002801DD002010BD012010BDC04610B500F0B1FE002801DC002010BD012010BDC04610B500F0A7FE002801DA00202F
:4053400010BD012010BDC04670B500220C4B04000D00FFF7EFFF002804D12000290001F0B5FA70BD064B00222000290000F05AFF01F0ACFA80231B069C466044F1E7C04602
:405380000000E041F8B556465F464D464446F0B40F00FD0FAA4609037C002E005F00450F490A7F0D2943C5001803BC46400A570F640DDB0F3843D2009A4500D1AAE066463E
:4053C000A61B002E00DCFFE06346002B39D10300134300D0D9E06B0709D00F232B40042B05D02B1DAB42AD416D4249191D000B0200D482E0CA4B01349C4200D1FEE00A00E2
:405400005646C84BED081A405007640552020543120B640D002112030B0D1B056405120B1A436308C04CF60714401C43640064083443280021003CBC90469946A246AB46F6
:40544000F8BDB74B9C42C6D080231B041843382E00DDEBE01F2E00DD1EE120239B1B9C4603006746BB40984613004746F3403B436746BA40571EBA4113430200F240EB1A52
:405480009D42B6411D008A1A7642911B0B0231D54A02560A002E00D1B4E0300001F084FA0300083B1F2B00DDB5E020222900D21AD1409E400A009D4032439C4200DDB1E010
:4054C0001C1B631C1F2B00DDD5E0202114002800C91A8C40D8408D400443DA40681E854111002543002476E74146314300D134E2310045466B0700D06FE756464807ED084C
:40550000C9080543864B9C4235D00A036405120B640D7FE76346E31A9B46002B00DC8BE06746002F3CD07E4FBC4200D153E780273F0438435B46382B00DCF7E00243501EAE
:4055400082410020D2B253194218AB4289411D00494289180B02CDD5714B01349C4200D13DE101206F4A6B080A4028401843D507054351082FE72B000B4300D1CBE180230B
:405580001B030B431A03120B44E7013E002E6DD1AE1AB5429B41091A5B42C91A350075E70700174300D116E701235B429C46E3445B46002B00D0E0E0AA18AA429B410918A0
:4055C0005B4259181500C5E7002E75D1661C7605760D012E00DCF3E0AE1AB0464545BF410E1A7F42F61B370200D48FE0551BAA42B641411A76428E1B9A464BE7564600226D
:40560000002507E7280001F0CFF920300300083B1F2B00DC49E72A002838824000259C4200DC4DE73F49E41A1140D4E60243501E8241D3B2002222E7002B00D0F3E0631C27
:405640009C465B055B0D012B00DC9FE0344B9C4500D1C3E0AA180918AA42804140424118CD075208154349086446B4E62C4B9C4200D0ECE6AFE611001F3CE1400C00202B2F
:4056800000D17FE04021CB1A9A4015436A1E95410021254300242DE733000700203BDF403B00202E70D04027BE1BB0400243501E824113430022E2E6002C4FD0184CA44528
:4056C00000D1ABE08024240476422143382E00DDDFE01F2E00DD43E12027BC1BA1460C004F46BC40A0462C004746F4403C434F46BD406F1EBD41F1402C43151BAA42924176
:40570000411A5242891A64469A46BFE641464546314300D0BEE6002600240025F2E6C046FF070000FFFF7FFFFFFF0F801F2B59DC2027FF1ABC46070063469F405B46B94642
:405740001700DF40B8464F4643461F4363469A40531E9A415B463A43D840F4E60C002C435CD0F643002E55D1551BAA42A441411A6442091B9A46644688E6964FBC4200D051
:40578000D8E628E6002280E700208FE70B002B43002C00D0C2E0002B00D101E10300134300D118E6AB18AB42B6410918764271180A0200D409E1884A1D00114064460AE634
:4057C000002C5BD10E002E4300D08AE00100114300D1C2E0010015009A46FCE56446002100258FE620235B429C46DC4463460700DF405B46BC46202B00D1ACE040235F4690
:40580000DB1B98400243501E8241634613431A00002098E66F4CA44500D057E70100150064469A46D7E5002C39D10C002C436ED0DB43002B1AD0674CA44568D0382B00DD29
:40584000A4E01F2B00DDAEE020240F00E41AA740B9462F00DF40B846A3464F46444627435C46A5406C1EA541D9403D43AD1895429B4109185B42591864466BE60C002C434D
:4058800015D1010011437BD0010015009A46514CA1E50D43691E8D410021ECB22DE74D4CA44534D0802424045B422143C6E7040014434ED0ED084C072C438025C9082D03FB
:4058C000294208D0C6082E4205D1D208410711430C009A463100620FC900E50011433D4C79E50600164300D175E5AE1AB0464545BF410E1A7F42F61B370200D4F4E5551B42
:40590000AA42B641411A7642891B9A4663E50100150064465FE5002200257BE5002B3BD00300134315D0ED084B072B438025C9082D03294207D0C4082C4204D141070B0087
:405940002100D2081343C9005A0F1143DD00214C41E5204C3FE5002054E700260025D1E534000F00203CE7403C00202E2BD04027BE1BB1400D43691E8D4100212C43BCE6A1
:40598000802100260903134C0025BBE50D43691E8D410021EDB269E7010015000D4C1AE50100150017E51C000F00203CE7403C00202B0CD04027FB1A99400D43691E8D41B0
:4059C0000021254352E70021D4E71D0092E50021F3E7C046FF070000FFFF7FFFF0B556464D4644465F46F0B41D000E034C00CB0F87B0070092468146360B640D98466AD050
:405A00006D4B9C4235D08022430F12041343F6001E43C3009946694B00279C460023644402932B0368001B0BED0F51469B46400D009500D178E0604B98426CD05B46DA00DE
:405A40004B0F802109040B4313439B465346D9005A4B9C46002360444246201A6A40924601901F430F2F00D9B0E05548BF00C0598746374300D088E00023994602330827A1
:405A800000260293CDE74346B34649460093029B009A9246022B00D0BFE1002153460122002689461A40444B002136030C0D2405360B2643434C1B0526401E437600D20761
:405AC000760816434846310007B03CBC90469946A246AB46F0BD330003434FD0002E00D1BCE1300000F060FF03000B3B1C2B00DDADE11D220100D31A08393A008F408E4033
:405B0000DA40B9461643304B00279C46002360444442029385E753465A4613432CD1002300219B46023397E70B4320D05B46002B00D19EE1584600F037FF03000B3B1C2B0F
:405B400000DD8FE102005946083A91408B461D21CB1A5146D9400B0059460B4351469B469140194B9C4660444042002374E7002300219B4601336FE703236DE7002399462A
:405B800001330427002602934BE703230C27029347E70122D51A382D00DCB0E153461A4000210023002689467EE700238026994600223603004B77E7FF07000001FCFFFF5B
:405BC000E8A90100FFFF0F80F30300005E4500D972E100D16DE1019B4D46013B01930023340002935B461E020B0E1E430B020393330C994633041B0C494620000093FFF725
:405C0000EFF9009B370043430600494620009846FFF76CFA2C0C09040C43A04509D9E419731EA74200D95CE1A04500D859E1023EE4194346E41A49462000FFF7D1F9030020
:405C4000009A80465343494620009B46FFF74EFA2A040904120C0A4393450DD94346D219013B974200D93AE1934500D837E102235B429C46D219E0445B46D21A43463604B4
:405C800033439B460399180C0B0C1D00059309045B46090C0C001B041B0C4443049159436B4368431B190D0CEB189C4203D980246402A44660441C0C09041B04090C201898
:405CC0005D18824200D2DEE000D1D7E0161A029B9C465D1BAC459B415B42F61AB74200D106E149463000FFF77BF9009B04004343494630009846FFF7F9F92E0C09040E4396
:405D0000B04509D9F619631EB74200D9F3E0B04500D8F0E0023CF6194346F31A494618000293FFF75DF9009B06004343494602989846FFF7DBF92D0409042D0C0D43A845A3
:405D400009D9ED19731EAF4200D9D6E0A84500D8D3E0023EED192404210043463143049E059A3000ED1A0B040C0C1B0C58436643534354439A19030C9B189E4203D980221C
:405D80005202944664441A0C00041B04000C14191B18A54250D34DD001231943964A019B94466344002B00DCF3E64A0709D00F220A40042A05D00A1D8A42894149428B4415
:405DC00011005A46D20108D55A468C4B1A4093468022D2009446019B6344894A934200DD5BE65A46C908500708435602514601225B058146360B5B0D0A4055E680231B0306
:405E00001E4211D05A461A420ED15E461E433603360B2A0089467B4B46E6032B00D1E1E0012BBBD11A40BBE61E433603360B4246744B39E6002BB1D07D194A1EAF4252D962
:405E40001100A542A8D1039A9A42A5D1A6E703003E00283B9E400023994654E600F0A4FD203041E603005246283B9A400021934677E6504600F098FD20305EE6029B0026CE
:405E8000AB4200D323E7039E0299B44661448846B045B6415B467642F619B218013B0291974213D290424FD800D18EE0161A9B460DE7894500D28EE674084B46F607350034
:405EC0005B081D434B46DB0702938BE69742EDD10399029CA142E5D93E1A9B46F7E69846CAE61E00A5E6AC423ED874D0110053E70121494252E71C000EE71E002BE71F2DA1
:405F00003CDC20230A0058465B1B9840EA4099400243481E81415E461143EE404B0709D00F230B40042B05D00B00191D99429B415B42F61833023CD55346012200211A40AE
:405F4000002601238946AFE502235B429C46039CE344A446029B63449846A045B6417642F6190293B218B1E603988A1E41008142B6417642F619AD19039161E71F225242E9
:405F8000D31A5A46DA401300202D29D040225846551BA8400143481E814107200B4318400026002809D00F2200261A401900042ABBD10B0070077602360BDB080343994662
:405FC000012253461A4000236EE502998D42BBD89B4600267BE603989842C5D3110032E70020D7E780265B4636031E433603360B009A8946034B57E5FF030000FFFFFFFE50
:40600000FE070000FF070000F0B55F4656464D464446F0B41F035C00DB0F9A46194B0E034D00C90F8046360B6D0D8B4691463F0B640D9D4219D0134B9C421BD00123A542EE
:4060400006D018003CBC90469946A246AB46F0BDBE42F6D1C845F4D1D34510D0002DF0D1304303005A1E9341EBE7310001230143E7D1E0E73A430123002AE2D1DEE700236E
:40608000DFE7C046FF070000F0B55F46444656464D46F0B41F033C0B2C4F0E034D00A3465C008446360B6D0DC90F9046640DDB0FBD422BD0254FBC422ED0002D0ED1304369
:4060C0000700814678427841002C17D15F463A4314D14B460020002B0AD006E0002C02D15846024301D099421AD00123484218433CBC90469946A246AB46F0BD0028F2D00A
:4061000058425841012240421043F1E737000743D0D002204042EBE75F461743CDD0F8E7A542E2DC05DB5E45DFD808D000205E45DED248424841012340421843D8E7C44544
:40614000D3D80020C445F4D3D2E7C046FF070000F0B55F464D4644465646F0B41C03240BA4462F4C0F034D005E00C90F80463F0B6D0D8B469146760DDB0FA54220D0284CE6
:40618000A64222D0002D12D1384344424441002E20D0002C0DD05C42634101245B421C4320003CBC90469946A246AB46F0BD002E17D05B4519D05B465C4201231C43EFE75C
:4061C000390002240143EBD1D9E7614602241143E6D1D7E761460A43DBD100240028DFD0E9E761460A43E4D1E5E7B54203DD01225C421443D4E7B542CDDB6745DBD809D089
:4062000000246745CCD259464C426141012449420C43C5E7C845CED80024C845F3D3BFE7FF070000F0B557464E464546E0B40E001100F20F9246C500420F18033703740054
:40624000400A4E0F7F0A3043CF4E17435A00640D520DDB0FC900B24200D1E5E001267340A61AB446534500D1AFE0002E00DC0DE1002A3AD103000B4300D0E4E06B0709D0B4
:406280000F232B40042B05D02B1DAB42AD416D427F191D003B0200D488E0BB4B01349C4200D110E13A00B94B51461A4001235007ED08520264050543120B640D0B400021C4
:4062C000280012030D0D120B64052D0515436208AF4CDB072C401443640064081C4321001CBC90469946A246F0BDA74B9C42C5D080231B0418436346382B00DDFDE01F2B29
:4063000000DD30E1624620239B1A02009A40664690460A009940F24046464B1E99413243114363460200DA40691A8D429B410D00BA1A5B42D71A3B0235D57A02530A984664
:406340004346002B00D1C4E0404600F02DFB0300083B1F2B00DDC5E020222900D21A4746D1409F400A009D403A439C4200DDC0E01C1B631C1F2B00DDE4E020211400280093
:40638000C91AD8408C408D400443DA40681E854117002543002471E7424663461A4300D14CE2674645466B0700D069E7012351467807ED08FA080B40054373498C4238D0F4
:4063C00012036405120B640D79E7002E00DC9AE0002A47D06C4A944200D14FE78022120410436246382A00DC08E10143481E81410022C9B24919D219A942BF410D007F42F0
:40640000BF183A0200D442E15F4A0134944200D14EE101205D4A69083A4028400843D507054357089A4629E706000E4300D017E714E72900114300D1F9E1802109030A4383
:406440001203120B3BE701235B429846C4446346002B72D1691A8D429B413F1A5B42FF1A0D0068E702000A4300D107E7012252429046C4446246002A00D0E6E06918A942FA
:40648000B6413F187642F7190D00BAE7002E00D080E0621C5205520D012A00DCF9E06A1A91464D45B6413A1A7642921B9046120200D499E04D1BA9428941C71B49427A1AB4
:4064C00090469A463CE752460123002513400022F5E6280000F068FA20300300083B1F2B00DC39E72A002838824000259C4200DC3EE7264FE41A1740C0E60143481E814110
:406500000022C9B210E7002E00D0F1E0621C94465205520D012A00DCA0E01B4A944500D1C5E06918A94292413F185242D2194908D5070D4357086446A0E6134B9C4200D082
:40654000D9E69BE611001F3CE1400C00202B00D180E04021CB1A9A4015436A1E95410027254300241FE763460200203BDA406346202B71D0402366469B1B98400143481E9B
:40658000814111430022CFE6FF070000FFFF7FFFFFFF0F80002C48D0CA4CA24200D1A2E07442A1468024240427434C46382C00DDDBE01F2C00DD44E14E462024A41B3E00CB
:4065C000A640A246B0464C462E00E640B4464646644626435446A5406C1EA54134002C434D46EF400D1B28E04A4643464D461A4300D0A5E6002300240025DEE61F2A5ADCC1
:4066000066462022921B060096409146B04662460E00D640424616434A4691404A1E9141020060463143C240E4E63C002C435AD0F443A146002C52D14D1BA9428941C71BA5
:4066400049427F1A14009A4675E69E4A944200D0C7E613E600227FE700208FE7002C00D0C8E03B002B4300D10FE103000B4300D104E66918A9429B413F185B42DF193B02CA
:4066800000D41AE1904B0D001F406446F6E59A4689E63A002A43002C5CD1002A75D102000A4300D1CAE007000D009A46E6E564460022002581E662460600203AD6406246D9
:4066C000B046202A00D1B7E040226646921B904001434246481E8141114300228AE6794CA24200D061E707000D0014009A46C5E5002C41D13C002C4378D0F443A146002C9F
:4067000020D0704CA24271D04C46382C00DDB2E01F2C00DDBCE02026341BA2463C005646B4404E46A0462C00F440A446444666463443A4465446A54064466E1EB5412543A8
:406740004C46E7406D188D4289413F184942CF19140056E6002A2FD102000A4300D184E007000D009A46574C88E53D436F1EBD41ECB200270D1B60E7524CA24236D07442F9
:4067800080263604A1463743BEE702000A4300D174E56A1A90464545B6413A1A7642921B9446120200D4F7E54D1BA9428941C71B49427F1A9A4661E502000A433AD0ED08B1
:4067C0007C072C438025FA082D032A4208D0C7082F4205D145072C003A009A46C9080C43670FD200E5001743364C47E507000D00140043E53A002A4343D002000A4319D04D
:40680000ED087C072C438025FA082D032A4207D0C6082E4204D147073C003200C9080C43D700620FE50017439A46264C26E50022002544E5234C21E5002049E70023002507
:40684000BBE54C463E00203CE6404C46B446202C31D040244E46A61BB7403D436C1EA54164462C4300270D1BE7E6802200231203144C0025A1E53D436F1EBD410027EDB2C2
:4068800060E707000D000F4CF8E407000D00F5E44E463C00203EF440A0464C46202C0ED040244E46A41BA7403D436F1EBD4144460027254346E70027CFE70D0073E50027FD
:4068C000F2E7C046FF070000FFFF7FFF0B0330B5134D1A0B4B005B0DC90F0024AB4211DD104CA34210DC8024640322430E4CE41A1F2C0CDD0D48C31ADA4013005C420029E6
:4069000000D11C00200030BD094BCC18FAE7E040084CA44663449A4013000343EEE7C046FE0300001D0400003304000013040000FFFFFF7FEDFBFFFF70B5051E28D000F02F
:4069400033F8154B154A1B1AD21A1F2A16DD2C00134A0025D21A94405A052403240B520D002124030B0D240B1B0523430D4C1205234013435B002800590870BD0B212C00A7
:40698000081AC440954024035A05240B520DE7E700220024E4E7C0461E0400003304000013040000FFFF0F801C2101231B04984201D3000C10391B0A984201D3000A083945
:4069C0001B09984201D30009043902A2105C40187047C04604030202010101010000000000000000014B18687047C046C01400200E4B70B500251E000D4CE41AA410A5421B
:406A000004D0AB00F35898470135F8E714F05AF8084B00251E00084CE41AA410A54204D0AB00F35898470135F8E770BDD0AA0100D0AA0100D0AA0100D8AA010030B50024D7
:406A4000A24208D0035D651C0C5DA34201D0181B02E02C00F4E7002030BD002310B59A4203D0CC5CC4540133F9E710BD03008218934202D019700133FAE770470FB40B4BC7
:406A800013B51C68002C05D0A369002B02D1200000F03CFA05AB049AA1682000019300F001FC16BC08BC04B01847C046C014002070B505000E00002804D08369002B01D181
:406AC00000F024FAAB69AC68002B02D1280000F01DFA254B9C4201D16C6808E0234B9C4201D1AC6803E0224B9C4200D1EC68A3891B0702D52369002B11D12100280000F0DB
:406B00009BF800280BD0012040422BE0013B0136A360002B08DB23685A1C226019703178A3680029F2D10BE0A269934201DB0A29F1D12200280000F027F8431CEFD1E2E704
:406B4000013BA360002B08DA22000A31280000F01BF8431CD7D00A2004E00A2023685A1C2260187070BDC04630AA010050AA010070AA010010B5034B01001868FFF798FFB3
:406B800010BDC046C0140020F8B505000F001400002804D08369002B01D100F0B7F9234B9C4201D16C6808E0214B9C4201D1AC6803E0204B9C4200D1EC68A369A360A3891E
:406BC0001B070AD52369002B07D023682269FEB2981A636998420FDB08E02100280000F02BF80028F1D0012040421DE02100280000F01EF90028F6D1A3680130013BA36077
:406C000023685A1C22601F706369984205D0A3893000DB0708D50A2E06D12100280000F007F90028DFD13000F8BDC04630AA010050AA010070AA0100364B70B51D6806007F
:406C40000C00002D05D0AB69002B02D1280000F05DF9314B9C4201D16C6808E02F4B9C4201D1AC6803E02E4B9C4200D1EC680C22A35E9AB2110723D4D10607D40922012079
:406C8000326037321343A381404242E0530713D5616B002908D023004433994202D0300000F02CFA002363632422A3899343A38100236360236923600822A3891343A38105
:406CC0002369002B0BD1A0238022A1899B0092000B40934203D02100300000F0D1F90123A289134005D00023A36063695B42A36103E0920700D46369A360002023698342AD
:406D000007D10C22A35E1A0603D540221343A381013870BDC014002030AA010050AA010070AA0100F7B58A8905000C0013075AD44B68002B02DC0B6C002B19DDE76A002F41
:406D400016D000232E682B6080235B011A4001D0606D14E00123216A2800B847431C0ED12B68002B0BD01D2B01D0162B02D12E6000205AE04022A3891343A38155E0A389D3
:406D80005B0706D56368C01A636B002B01D0236CC01A00230200216A2800E76AB847A389421C06D129681D293AD8204ACA40D20736D50022626022692260DB0405D5431CEB
:406DC00002D12B68002B00D16065616B2E600029CED023004433994202D0280000F08EF90020606321E00F69002FC1D00B680F60DB1B01930023920700D14B69A36003E0B6
:406E0000019B3F181B1A0193019B002BB0DD019B3A00216A2800A66AB0470028F0DCA389402201201343A3814042FEBD010040200B6970B505000C00002B01D100201CE034
:406E4000002804D08369002B01D100F05FF80B4B9C4201D16C6808E0094B9C4201D1AC6803E0084B9C4200D1EC680C22A35E002BE4D021002800FFF755FF70BD30AA01002A
:406E800050AA010070AA010010B5024900F0B0F810BDC046316E0000002310B5040003604360836081814366C281036143618361190008225C30FFF7D9FD054B24626362BD
:406EC000044BA362044BE362044B236310BDC046217800004978000081780000AD78000070B568254B1E5D430E002900743100F051F9041E08D000212A00016046600C3031
:406F0000A0606832FFF7B2FD200070BD836913B50400002B28D18364C3640365134B144A1B6882620193984201D101238361200000F020F86060200000F01CF8A0602000DC
:406F400000F018F80022E06004216068FFF7A4FF01220921A068FFF79FFF02221221E068FFF79AFF0123A36113BDC0462CAA0100896E0000F8B51D4B06001D68AB69002B67
:406F800002D12800FFF7C2FF4835AC686B68013B05D40C22A75E002F10D06834F7E72B68002B01D02D68F0E704213000FFF798FF28600028F6D10C23336016E0012320009A
:406FC0005B42E3810233A38167662760A760676027616761A7615C3008223900FFF746FD20006763A763A764E764F8BD2CAA0100F7B504000700002601914834002C16D0C2
:407000006368A5680093009B013B00930DD4AB89012B08D90E22AB5E013304D029003800019B984706436835EDE72468E6E73000FEBD000070B50E001D000E23C95E90B056
:407040001400002906DA00232B60B3891B060FD540230FE001AA00F055FC0028F3DBF023029A1B021340054A9B185A4253412B608023DB000020236010B070BD00E0FFFF08
:40708000F7B502268B8905000C00334210D101AB6A46FFF7CFFF00990700280000F07AF800280CD10C22A35E9A0523D43343A3812300473323602361012363611AE08022AB
:4070C0000D4BAB62A38920601343A381009B20616361019B002B0AD00E23E15E280000F023FC002803D00122A3891343A381A3891F43A781F7BDC046896E000070B5050088
:40710000002944D00C1F2368002B00DAE418280000F03BFC1E4A13681100002B02D16360146031E0A3420DD92268A018834203D118685B688218226063600C6024E0A242B6
:4071400003D813005A68002AF9D11E689819A0420BD12168711858181960824214D110685268411819605A600EE0A04202D90C232B6009E021686018824203D110685268FB
:407180004118216062605C60280000F0FFFB70BDF4250020032370B5CD1C9D43083506000C2D01D20C2501E0002D01DBA94202D90C23336048E0300000F0E7FB234B1C68DD
:4071C0001A002100002913D00B685B1B0DD40B2B02D90B60CC181EE08C4202D1636813601AE04B6863600C0016E00C004968E9E7174C2368002B03D1300000F0FFFA2060BC
:407200002900300000F0FAFA431C18D00323C41C9C43A0420DD12560300000F0B7FB200007220B30231D9043C31A0ED05A42E2500BE0211A300000F0E1FA431CEBD10C2343
