:400000000040002011000000653F0000653F000010B503F0C9FFC04670B51222244B1A6004F0F0F8234804F04BFE012004F00AF9302004F003F8204A204B1A60204C802504
:40004000ED0525601F4A116802230B4313601E4A1E4B1A6000221E4B1A601E4A136808218B431360FA20C00004F046F81A4804F039F81A4A1A4B1A601A4B1B4A1A60C821A1
:4000800049011A4A11601A4A1A6080221206194B1A608022D202184B1A604123174A1360174A13604022174B1A60256070BDC04630001040001BB7000600008004010B402E
:4000C0000C020B4078002E402D3E00007C002E4064F02E406CF02E40DC050000007FBB00040301400000014041FF00800003014040FF008008010B4000010B402C0101406B
:400100001C0101400401014010B572B60022374B1A6000240FE036486200131959000B00411889881A5AC31858880004104303F013FF0134E4B2012CEDD92D490C312D48B2
:40014000283003F0DFFE802252002B4B1A80FF3A2A4B1A70EE221206294B1A6099231B04284A1360C0218905274A1160274A1360274A1360274A136080210906264A1160B7
:40018000264A13608022D205254B1A6025490B783C22934314221343DBB20B70224A117816230B43DBB21370D8231B041F4A136020221F490A60C42080021E4908601E490E
:4001C0000A60A0321D490A60B020C0031C490860802000021B4908601B490A601B4A1360FFF71AFF03F0A8FE10BDC0466CF02E4024A70100A4A7010000600F4002600F40C2
:4002000000000240000102400003024000500F4010500F4020500F4024500F4030500F4038500F4001700F4000700F4008000440000104400801044018010440000204407E
:40024000080204400C020440000304400803044010B5064C2378002B07D1054B002B02D0044800E000BF0123237010BDC8140020000000000C980100084B10B5002B03D020
:400280000749084800E000BF07480368002B00D110BD064B002BFBD09847F9E700000000CC1400200C980100400C00200000000010B5012004F0FCFC10BDC04670B55448FF
:4002C00006F0FCFD534CE079227A12020243637A1B0413431A00A37A1B0613430133E371190A2172190C61721B0EA37202F0A8FD494C607AA27A12020243E37A1B04134361
:400300001A00237B1B06134301336372190AA172190CE1721B0E237302F0B6FF3F4E307A727A12020243B37A1B0413431A00F37A1B061343013333721A0A72721A0CB2722A
:400340001B0EF37233256D42357155246442747102F0BEF8324E707AB27A12020243F37A1B0413431A00337B1B06134301337372190AB172190CF1721B0E33737571B471C5
:4003800002F040FB274CE079227A12020243637A1B0413431A00A37A1B0613430133E371190A2172190C61721B0EA37203F05AF91D4C207A627A12020243A37A1B041343CB
:4003C0001A00E37A1B061343013323721A0A62721A0CA2721B0EE37203F05AFB134CA079E27912020243237A1B0413431A00637A1B0613430133A371190AE171190C21722D
:400400001B0E637203F044F804F0A8FB70BDC046A09901009028002060320020D42E0020042F0020642F0020B42B0020AC280020F8B50288D24B1A71120A5A710A889A7183
:40044000120ADA7105880E88AC002C196200B21892B220241A55120A01341A5505880E88AC002C196200B21892B222241A55120A01341A5505880E88AC002C196200B218E5
:4004800092B224241A55120A01341A5505880C88AA00AA1855002A195A7705880C88AA00AA1855002A199A7705880C88AA00AA1855002A19DA7705880E88AC002C19620069
:4004C000B21892B29A75120ADA7505880E88AC002C196200B21892B29A74120ADA7405880C88AA00AA1855002A191A7605880E88AC002C196200B21892B2DA76120A1A7742
:4005000005880E88AC002C196200B21892B21A74120A5A7402889400A41862000C88A2181A72140A5C72140C9C72120EDA7202889400A41862000C88A2181A73140A5C731F
:40054000140C9C73120EDA7305880E88AC002C196200B21892B25A76120A9A7605880E88AC002C196200B21892B21A75120A5A750288844BDA70120A1A710A885A71120A9E
:400580009A7105880C88AA00AA1855002A191A7405880E88AC002C196200B21892B21A75120A5A7505880E88AC002C196200B21892B25A74120A9A7402889400A4186200C7
:4005C0000C88A218DA71150A1D72150C5D72120E9A7205880C88AA00AA1855002A199A7505880C88AA00AA1855002A19DA7405880C88AA00AA1855002A19DA75028894005F
:40060000A41862000C88A218DA72150A1D73150C5D73120E9A7305880C88AA00AA1855002A19DA730388584AD3701B0A13710A88554B5A71120A9A7105880C88AA00AA18F9
:4006400055002A195A7505880C88AA00AA1855002A199A7505880C88AA00AA1855002A19DA7502889400A41862000C88A218DA71150A1D72150C5D72120E9A7202889400AE
:40068000A41862000C88A218DA72150A1D73150C5D73120E9A7305880C88AA00AA1855002A195A7605880C88AA00AA1855002A191A7605880C88AA00AA1855002A199A74D8
:4006C00005880C88AA00AA1855002A19DA7405880C88AA00AA1855002A191A7505880C88AA00AA1855002A19DA7305880C88AA00AA1855002A191A7405880C88AA00AA1821
:4007000055002A195A740288204B5A71120A9A710A88DA71120A1A7202889400A41862000C88A2181C003E342270150A6570150CA570120EE27005880E88AC002C1962002B
:40074000B21892B246241A55120A1C004634627002880D889400A218940012190C4CA218525D140248269D5D49229A5C12022A43FF252A4022439A55120A1C00483409E042
:40078000D42E002090280020642F0020042F00201C260020627005880C88AA00AA1855002A1921241A5505880E88AC002C196200B2181C00353492B22270120A6270058816
:4007C0000E88AC002C196200B2181C00293492B22270120A627005880C88AA00AA1855002A1922241A5505880C88AA00AA1855002A1923241A5505880C88AA00AA18550072
:400800002A1924241A5505880C88AA00AA1855002A192E241A5505880C88AA00AA1855002A192F241A5505880C88AA00AA1855002A1930241A5505880C88AA00AA18550027
:400840002A192B241A5505880C88AA00AA1855002A192C241A5505880C88AA00AA1855002A192D241A5505880E88AC002C196200B21892B25A77120A9A7705880C88AA0061
:40088000AA1855002A1937241A5502889400A41862000C88A2185A75150A9D75150CDD75120E1A7605880E88AC002C196200B21892B244241A55120A1C00443462700588FD
:4008C0000C88AA00AA1855002A1920241A5505880E88AC002C196200B218333392B21A70120A5A7005880E88D24BAC002C196200B2181C00273492B22270120A627005882E
:400900000E88AC002C196200B21892B242241A55120A1C004234627005880C88AA00AA1855002A19DA7705880E88AC002C196200B2181C00313492B22270120A62700588E3
:400940000E88AC002C196200B2181C00253492B22270120A627005880C88AA00AA1855002A193B241A5505880C88AA00AA1855002A193C241A5505880C88AA00AA185500C2
:400980002A193D241A5502889400A41862000C88A2185A74150A9D74150CDD74120E1A7505880C88AA00AA1855002A1938241A5505880C88AA00AA1855002A1939241A559A
:4009C00005880C88AA00AA1855002A193A241A5502889500AD186A000D88AA185A72160A9E72160CDE72120E1A7302889500AD186A000D88AA185A73160A9E73160CDE732F
:400A0000120E1A7402889500AD186A000D88AA185A76160A9E76160CDE76120E1A7706880D88B200B218560072194A255A5506880D88B200B218560072194B255A5506886D
:400A40000D88B200B218560072194C255A550288794B5A71120A9A710A88DA71120A1A7206880D88B200B2185600721925255A5506880F88B50075196A00BA181D003335FD
:400A800092B22A70120A6A7006880F88B50075196A00BA1892B22A255A55120A01355A5506880D88B200B2185600721937255A5506880D88B200B218560072192E255A556E
:400AC00006880D88B200B218560072191A5505880C88AA00AA1855002A1922241A5505880C88AA00AA1855002A1924241A5505880E88AC002C196200B2181C00313492B24C
:400B00002270120A627005880E88AC002C196200B21892B228241A55120A01341A5505880C88AA00AA1855002A1936241A5505880C88AA00AA1855002A192D241A550588D6
:400B40000C88AA00AA1855002A1939241A5505880C88AA00AA1855002A1921241A5505880C88AA00AA1855002A1923241A5505880E88AC002C196200B2181C002F3492B25A
:400B80002270120A627005880E88AC002C196200B21892B226241A55120A01341A5505880C88AA00AA1855002A1935241A5505880C88AA00AA1855002A192C241A5505885A
:400BC0000C88AA00AA1855002A1938241A5505880C88AA00AA1855002A1920241A5502889400A41862000C88A2185A72150A9D72150CDD72120E1A7302889400A4186200DD
:400C00000C88A2185A73150A9D73150CDD73120E1A7405880C88AA00AA1855002A195A7405880C88AA00AA1855002A199A74058804E0C046042F0020603200200C88AA006B
:400C4000AA1855002A19DA7405880C88AA00AA1855002A191A7505880C88AA00AA1855002A195A7505880C88AA00AA1855002A199A7505880C88AA00AA1855002A19DA757C
:400C800005880C88AA00AA1855002A191A7605880C88AA00AA1855002A195A7605880C88AA00AA1855002A199A7605880C88AA00AA1855002A19DA7605880C88AA00AA1853
:400CC00055002A191A7705880C88AA00AA1855002A195A7705880C88AA00AA1855002A199A7705880C88AA00AA1855002A19DA7705880C88AA00AA1855002A193B241A5536
:400D000005880C88AA00AA1855002A193C241A5505880C88AA00AA1855002A193D241A550288CD4B9A70120ADA700A881A71120A5A7105880C88AA00AA1855002A19DA7540
:400D400005880C88AA00AA1855002A191A7605880C88AA00AA1855002A195A7605880C88AA00AA1855002A191A7505880C88AA00AA1855002A195A7505880C88AA00AA1894
:400D800055002A199A7505880C88AA00AA1855002A195A7405880C88AA00AA1855002A199A7405880C88AA00AA1855002A19DA7405880C88AA00AA1855002A199A73058834
:400DC0000C88AA00AA1855002A19DA7305880C88AA00AA1855002A191A7402889400A41862000C88A2189A71150ADD71150C1D72120E5A7202889400A41862000C88A21833
:400E00009A72150ADD72150C1D73120E5A7305880C88AA00AA1855002A199A7605880A881C00AB00EB185D00AB18E37605880A88AB00EB185D00AB18237705880C88874B89
:400E4000AA00AA1855002A193D241A5505880C88AA00AA1855002A193E241A5505880C88AA00AA1855002A193F241A5505880C88AA00AA1855002A1940241A5505880C8898
:400E8000AA00AA1855002A1934241A5505880C88AA00AA1855002A1935241A5505880C88AA00AA1855002A1936241A5505880C88AA00AA1855002A192B241A5505880C8888
:400EC000AA00AA1855002A192C241A5505880C88AA00AA1855002A192D241A5505880C88AA00AA1855002A193A241A5505880C88AA00AA1855002A193B241A5505880C8844
:400F0000AA00AA1855002A193C241A5505880C88AA00AA1855002A1931241A5505880C88AA00AA1855002A1932241A5505880C88AA00AA1855002A1933241A5505880C88FF
:400F4000AA00AA1855002A1928241A5505880C88AA00AA1855002A1929241A5505880C88AA00AA1855002A192A241A5505880C88AA00AA1855002A1937241A5505880C88DF
:400F8000AA00AA1855002A1938241A5505880C88AA00AA1855002A1939241A5505880C88AA00AA1855002A192E241A5505880C88AA00AA1855002A192F241A5505880C8883
:400FC000AA00AA1855002A1930241A5505880C88AA00AA1855002A1925241A5505880C88AA00AA1855002A1926241A5505880C88AA00AA1855002A1927241A5505880E886D
:40100000AC002C196200B21892B25A76120A9A7605880E88AC002C196200B21892B220241A55120A01341A5502889400A41862000C88A2181A72140A5C72140C9C72120E0C
:40104000DA7202889400A41862000C88A2181A73140A5C7304E0C046AC280020B42B0020140C9C73120EDA7305880E88AC002C196200B21892B21A71120A5A7105880C8890
:40108000AA00AA1855002A195A7705880E88AC002C196200B21892B2DA76120A1A7705880E88AC002C196200B21892B29A77120ADA7705880E88AC002C196200B21892B254
:4010C0009A71120ADA7105880C88AA00AA1855002A1922241A5505880C88AA00AA1855002A1923241A5505880C88AA00AA1855002A1924241A5505880C88AA00AA1855000B
:401100002A199A7505880C88AA00AA1855002A19DA7505880C88AA00AA1855002A191A7605880C88AA00AA1855002A191A7405880C88AA00AA1855002A195A7405880C886D
:40114000AA00AA1855002A199A7405880C88AA00AA1855002A19DA7405880C88AA00AA1855002A191A7505880C88AA00AA1855002A195A7505880C88AA00AA1855002A191D
:4011800041241A5505880C88AA00AA1855002A1942241A5500880988820082185000421843215A54124B1A78062A1FD89300114AD3589F4601F08CF9012018E001F022FCBE
:4011C000012014E001F03CFE012010E002F05CF801200CE002F05CF9012008E002F042FA012004E002F054FC012000E00020F8BDAD2B00201098010010B503F0EFFB00234A
:40120000224A1380224A1380224A1380224A1380224A138001204042C117214B1860596001F06AF81F4B02225A709A70DA7001F04FF91D4B012464425C709C70DC701C717F
:401240005621494248229954483300225A7001F0D9FB164B5C709C7001F0F2FD144A54709470D470147102F00FF8124B5C7002F00FF9114B5C709C7002F0F4F90F4B5C708C
:401280009C70DC7002F004FC10BDC046FC2E0020602F0020FE2E0020CA280020FA2E0020A0320020D42E0020042F00209028002060320020AC280020642F0020B42B0020DB
:4012C000F0B557464E464546E0B486B062B6CF4B1B88002B02D0002002F0EAFECC4803F02FFC03F0D5FCCB4803F06AFCCA4803F007F8C64B1880FFF77FFF06F07BFDC74BF4
:401300001B78022B14D1C64B1B78002B10D003F083FBC44B1B6880221202134000D001231B18002B04D1002003F040F8B74B1880BD4B1B88002B44D156E0BC49F3009C1B71
:40134000A400A419605C0C1963781B0203431A00A3781B041343E27812061A439146217963791B020B431A00A3791B041343E27912061A439046217A637A1B020B431A006E
:40138000A77A3F043B001343E77A3F061F43217B637B1B020B431A00A57B2D042B001343E57B2D061D43210010310D22684605F0F8FC484641463A002B0001F039FC01366D
:4013C00001E0002600209A4B19888E42B5DB002804D0FF21FF2002F0EBFB02E0FC2002F0E7FB0022904B1A80924B1B88002B54D168E0E3001B1B9B001B198F4AD3185A78CE
:401400009B781B0213438B4A1288934243D18A49E3001E1BB6003619705C8E1973781B0203431A00B3781B041343F27812061A439246317973791B020B431A00B3791B0442
:401440001343F27912061A439146317A737A1B020B431A00B37A1B041343F27A12061A439046317B737B1B020B431A00B77B3F043B001343F77B3F061F43310010310D220A
:40148000684605F08EFC5046494642463B0001F0CFFB0135ADB2013402E0002400250020664B1B889C42A4DB002804D0FF21FE2002F07EFB03E02900FB2002F079FB002242
:4014C0005C4B1A805E4B1B78002B51D158E05D4EEC00641BA4006419A15D341963781B020B431A00A3781B041343E27812061A439246217963791B020B431A00A3791B049B
:401500001343E27912061A439146217A637A1B020B431A00A37A1B041343E27A12061A439046217B637B1B020B431A00A77B3F043B001343E77B3F061F43210010310D22E9
:40154000684605F02EFC5046494642463B0001F06FFB0135E900491B8900491971181D22200005F01EFC384A1388013B138000E00025354B1B889D42A9DB0022304B1A7058
:40158000324B1B88002B3CD0314B1A88314B9A4229D121E0E3001B1B9B001B19264AD3185A789B781B021343284A1288934211D1E3001B1B9B001B191F4AD318DA7B083339
:4015C0001B7A1B021343162169440B801F48FEF72FFF2D18013401E000240025174B1B889C42D7DB04E01A491848FEF721FF05002900FA2002F0FAFA0023144A1380144A55
:401600001380032006F0D4FB77E6C046A8280020BD020000B1020000A5160000CA320020A832002008022440F8250020D0280020FE2E0020A62B0020882F0020CA280020B0
:40164000F82B0020FC2B0020FA2E0020582F0020842F0020FFFF000010B5114B1B78042B08D103F01DF9012003F098F9002003F089F914E0032B08D1012003F08FF9012069
:4016800003F080F903F06EF909E0022B07D103F007F9012003F076F9002003F07FF910BDCA320020F0B54F464646C0B4A1B00C00542801D900F05EFD8000E44B1B589F464D
:4016C000002002F0F1FEE24805F07CFB06A80023837106F075FB062306E05C1E06AB195DDC4805F06FFBE3B2002BF6D1DA4805F0E5FBDA4805F0E2FBFFF7AEFF0023D84A9B
:401700001360D84A1360D84A1360D84A1360D84A1360D84A1360D84A1360D84A1360D84A1360D84A137000F025FDD74805F0C6FBFFF792FF00F01EFDFFF78EFFD34805F0DD
:40174000BDFBD34B1B78042B01D000F013FD012002F00AFD02F03EFD00F00CFDCD4805F0ADFB00F007FDBC4805F0A8FB2168CA4805F028FB00F0FEFC0978C84805F022FB3E
:4017800000F0F8FC49782278C54805F01BFB00F0F1FC09786278A378E0780090C14805F011FB00F0E7FC8B89172B15D1BE4D081D29332A00002113F0EDF863681B7801223E
:4017C0001340A74A13602B7868780002184312F0CDFAB64805F072FBA3891B2B15D1B24D201D25332A00002113F0D4F863681B78022213409B4A13602B7868780002184316
:4018000012F0B4FAAA4805F059FBA3891F2B15D1A54D201D21332A00002113F0BBF863681B7801221340904A13602B7868780002184312F09BFA9F4805F040FBA389232BB4
:4018400015D1994D201D1D332A00002113F0A2F863681B7802221340844A13602B7868780002184312F082FA934805F027FBA389272B15D18C4D201D19332A00002113F0AD
:4018800089F863681B7802221340794A13602B7868780002184312F069FA884805F00EFBA3892B2B15D1804D201D15332A00002113F070F863681B78012213406D4A13601B
:4018C0002B7868780002184312F050FA7C4805F0F5FAA3892F2B15D1734D201D11332A00002113F057F863681B7802221340624A13602B7868780002184312F037FA71480A
:4019000005F0DCFAA389332B15D1674D201D0D332A00002113F03EF863681B7802221340564A13602B7868780002184312F01EFA654805F0C3FAA389372B15D15A4D201D1E
:4019400009332A00002113F025F863681B78022213404B4A13602B7868780002184312F005FA5A4805F0AAFAA3893B2B15D14E4D201D05332A00002113F00CF863681B788F
:40198000022213403F4A13702B7868780002184312F0ECF94E4805F091FAA389322B01D000F0E8FB201D0E333F4A002112F0F2FFA28906AB1A8012229A70636819784548E2
:4019C00005F000FA62681378072B00D9BDE39B004149CB589F46414805F070FA274B1B68002B03D0274B1B78002B0DD13C4805F065FA06A9FD23CB702B4A13785078000236
:401A0000184312F015F9B5E3364B1B88002B03D00122354B1A80A6E3344805F04FFA06A98523CB70204A137850780002184312F0FFF89FE39378002B01D154785BE0527801
:401A4000002A55D1FF245C4355E0C0462C980100B0990100D0990100489A0100D8990100002600205C2F0020542F002004260020A82B0020CC280020802F0020FC25002056
:401A8000B02B0020AC2B0020FC990100209A0100CA3200204C9A0100689A0100A49A0100C89A0100009B0100D0320020549B0100949B0100CC9B0100189C01005C9C010047
:401AC000989C0100D89C0100109D0100389D0100649D0100909D010080990100B89D0100CC9D0100FE2E0020F8250020189E01001C02A418A4B22100CD4805F063F9CD4B9F
:401B00001B68002B03D0CC4B1B78002B0DD1CB4805F0D4F906A9FD23CB70C94A137850780002184312F084F824E3C64B1B88002B0DD1C54805F0C2F906A98523CB70C04A34
:401B4000137850780002184312F072F812E3BF4B1C80002210000DE0D3009B1A9B009B18BB49CB1859789B781B020B439C4200D101200132B74B1B889A42EDDB002800D03F
:401B8000F1E20022B14B1A80B34805F097F906A98123CB70AA4A137850780002184312F047F8E7E2A34B1B68002B0DD1AB4805F085F906A9FD23CB70A14A137850780002B4
:401BC000184312F035F8D5E29E4B188800280DD19D4805F073F906A98523CB70984A137850780002184312F023F8BCE25579062D0DD99B4805F062F906A98023CB70904A6F
:401C0000137850780002184312F012F8B2E29378002B03D15178934B19800BE05178002904D1FF314B438F490B8003E01B025B188C490B801379002B03D1D2788A4B1A8020
:401C40000BE0D278002A04D1FF325343864A138003E01B029B18844A1380844B1D700022160015001AE0D3009B1A9B009B188049CB1859789B781B020B437A4909888B425D
:401C80000BD1D3009B1A9B009B1879495B5C9B0701D4012501E00126002501328242E2DB002E13D06F4C2188724805F08BF8002323806D4A138006A98333CB70604A1378EF
:401CC00050780002184311F0B3FF53E2002D33D1644C2188684805F075F800232380624A138006A98133CB70554A137850780002184311F09DFF3DE2D3009B1A9B009B18B7
:401D00005349CB18D97B08331B7A1B020B43564909888B420ED1D3009B1A9B009B184C49CB1859789B781B020B434E4909888B4200D10120013201E000221000454B1B88BC
:401D40009A42D9DB484B19884C4B994200D10120002812D14A4805F035F80023414A1380414A138006A98233CB70354A137850780002184311F05CFFFCE1424805F09EF801
:401D8000384B1988404805F01DF8374B19883F4805F018F8636859793D4805F013F8E2E15378002B00D07BE03A4E3188013189B23180002208A802F03BF8224F05976C46A3
:401DC0000BAB07CB07C41A6822601B7923710899099A0A9B264801F04FFF01222E4B1A80398810A802F024F8194B9946194B9846059313AB6A4623CB23C21A6822601B791B
:401E000023711099119A129B484601F035FF4346188801381D235843484400F08FFE43461B883A8831881D4804F0CCFF9BE1C046409E0100FC250020AC2B0020CC9D010046
:401E4000D0320020FE2E0020189E0100A62B0020882F0020CA280020749E0100C09E0100F89E0100582F0020842F0020AD2B0020D0280020109F0100389F0100FFFF00004A
:401E8000649F0100949F0100B09F0100AC9F0100C49F0100FC2E0020602F00201CA00100012B3ED1B64B198800292CD0B54E3288013292B2328018A801F0BAFFB24CB34DE4
:401EC00005956A461BAB83CB83C2196811601B7913711899199A1A9B200001F0CDFE288801381D235843001900F028FEA84B1A883188A84804F066FF2A88A14B1988A64889
:401F000004F060FF2FE1A54804F0D8FF06A98723CB70A34A137850780002184311F088FE28E1A04804F0CAFF06A98923CB709C4A137850780002184311F07AFE1AE19A489E
:401F400004F0BCFF8E49994801F06EFE00280FD08E4D8D4C2900200001F080FE2B88013BDA00D21A9200D318181900F0E7FDFAE08F4804F0A3FF06A98823CB70884A1378BA
:401F800050780002184311F053FEF3E09478002C01D1547808E05378002B02D1FF22544302E02402E418A4B22100824804F00AFF220073497D4801F087FE01280FD000280D
:401FC00004D002281AD0032827D0CCE07A4804F075FF22006D496C4801F0ECFEC3E02100764804F0EFFE06A98123CB706C4A137850780002184311F01BFEBBE021007048B5
:4020000004F0E0FE06A98323CB70654A137850780002184311F00CFEACE06A4804F04EFF06A98523CB705E4A137850780002184311F0FEFD97E0644804F040FF634B1B68E8
:40204000002B0DD1624804F039FF06A9FD23CB70534A137850780002184311F0E9FD89E0474B1B88002B0CD15A4804F027FF06A98523CB704A4A137850780002184311F00A
:40208000D7FD626853789578002B02D0012B48D04DE0514A517893781B020B431800517A927A12020A43192343434C49CB189D542D024B4B4820195C49229A5C12020A4383
:4020C000FF210A401543294019541B182D0A5D7049E0E3001B1B9B001B192B4AD3185A789B781B0213433C4A50789178090201438B4214D1E3001B1B9B001B19224AD318B1
:40210000D87B1A7C120202438B0058188300C3183248C3189D542B00324804F053FE013400E00024194B1B889C42D2DB1BE02E4804F0C4FE06A98923CB70194A1378507896
:402140000002184311F074FD14E0284804F0B6FE06A98023CB70124A137850780002184311F066FD06E00E4A137850780002184311F0FCFD21B00CBC90469946F0BDC0469E
:40218000FE2E0020602F0020882F0020CA280020FC2E002070A0010040A00100B0A00100D0320020ECA0010044A10100D028002054A101007CA10100ACA10100D0A101002D
:4021C00000A2010034A201004CA20100FC250020C09E0100189E0100082600201C260020042F002074A20100BCA20100D0A2010010B50022064B04F0B9F90022054B03F0F0
:4022000091FD02F06DFD03F043FAC0B210BDC0460000F03F0000334010B584B0140001AA1081019194800A490B78487800021843110011F045FD002804D00100054804F029
:40224000C1FD03E02100044804F0BCFD04B010BDD0320020E4A2010004A3010070B584B005000E00140001E005F0C4FD05F0ACFD82235B009842F7D00D4B1B78012BF3D0A1
:4022800001A901968C800D810A4A137850780002184311F00BFD002804D00100064804F091FD03E02100054804F08CFD04B070BDCC320020D032002028A3010048A30100C2
:4022C00001700B0A4370090C8170704701700B0A43700B0C8370090EC170704770B51600002405E04D1C087802F088FB01342900B442F7DB300070BD00B585B001A81323B8
:402300000381054B0193082383800023034A002112F040FB05B000BDA0320020D032002070B50500684B5B78DB070DD5674B1B681B070BD5644A137C517C09021943103057
:4023400002F002F9122402E0102400E010245E4B5B789B070DD55D4B1B689B0609D55A4A937CD17C09021943281902F0EDF80234E4B2554B5B785B070DD5544B1B681B0621
:4023800009D5514A137D517D09021943281902F0DBF80234E4B24C4B5B781B070DD54B4B1B689B0509D5484A937DD17D09021943281902F0C9F80234E4B2434B5B78DB06AF
:4023C00008D5424B1B685B0504D53F4B1B7E2B550134E4B23C4B5B789B060DD53B4B1B68DB0409D5384A537E917E09021943281902F0AAF80234E4B2334B5B785B060DD5A8
:40240000324B1B681B0409D52F4AD37E117F09021943281902F098F80234E4B22A4B5B785BB2002B11DA294B1B681B030DD5264B1F229A562A55621C1E215956A954A21CA5
:402440005B7F5BB2AB540334E4B21F4B9B78DB070FD51E4B1B689B020BD51B4A2023D35C2121515C09021943281902F06DF80234E4B2154B9B789B070FD5144B1B685B0234
:402480000BD5114A2223D35C2321515C09021943281902F059F80234E4B20B4B9B785B070FD50A4B1B681B020BD5074A2423D35C2521515C09021943281902F045F802347A
:4024C000E4B2200070BDC046D42E0020A0320020F0B593B00FA816230381404B0F932623838000233E4A002112F054FA3D4B1B68002B71D005AD2800FFF712FF040006008C
:402500000100394804F05EFC200004F0B9FBFFF76FFE01000700354804F054FC2F4C63786B70A378AB70E378EB70237961790902194306A802F008F8A379E1790902194360
:402540001A20684402F000F8207A637A1B0203431A00A17A09040B001343E17A0906194307A8FFF7B3FE207B637B1B0203431A00A17B09040B001343E17B0906194308A8FB
:40258000FFF7A4FE0024002524E0002C05D13B007F336A461370012213E03B1B013B6A461370F8E7E3001B195B001B19D318B34205D205A9CB5C69468B54551CEDB2013257
:4025C000D2B2132AEED9AAB269461620FFF724FE0134E4B2BC42D8D313B0F0BDD42E0020D03200200026002068A30100A8A3010070B505000E4B5B78DB0716D50D4B1B6836
:402600005B0719D50A4C607CA37C1B0203431A00E17C09040B001343217D0906194328001130FFF753FE152407E0112405E0C046042F0020A03200201124D94B5B789B07A5
:4026400015D5D84B1B68DB0611D5D54E707DB37D1B0203431A00F17D09040B001343317E090619432819FFF731FE0434E4B2CC4B5B785B0715D5CB4B1B685B0611D5C84EF0
:40268000707EB37E1B0203431A00F17E09040B001343317F090619432819FFF717FE0434E4B2BF4B5B781B070DD5BE4B1B68DB0509D5BB4A537F917F09021943281901F0C1
:4026C00043FF0234E4B2B74B1B685B051CD5B44B5B78DB0604D5B24BDB7F2B550134E4B2AF4B5B789B0605D52023AD4AD35C2B550134E4B2AA4B5B785B0605D52123A84A93
:40270000D35C2B550134E4B2A54B5A789B781B0213431B0611D5A34B1B681B050DD5A04B24229A5C2A55621C2321595CA954A21C22215B5CAB540334E4B29A4B1B68DB0478
:402740002FD5974B9B78DB070BD5954A2523D35C2621515C09021943281901F0F5FE0234E4B28F4B9B789B070BD58D4A2723D35C2821515C09021943281901F0E5FE023495
:40278000E4B2874B9B785B070BD5854A2923D35C2A21515C09021943281901F0D5FE0234E4B27F4B9B781B0711D57E4B1B689B040DD57B4B2D229A5C2A55621C2C21595C26
:4027C000A954A21C2B215B5CAB540334E4B2744B9B78DB0611D5734B1B685B040DD5704B30229A5C2A55621C2F21595CA954A21C2E215B5CAB540334E4B26A4B1B681B044B
:4028000035D5674B9B789B060BD5654A3123D35C3221515C09021943281901F095FE0234E4B25F4B9B785B060BD55D4A3323D35C3421515C09021943281901F085FE0234A0
:40284000E4B25748417883781B020B431A00C3781B0413431B040AD53523C35C3621415C09021943281901F06FFE0234E4B24C4BDB78DB0709D54B4B1B68DB0305D537232A
:40288000474AD3562B550134E4B2454BDB789B0711D5444B1B689B030DD5414B3A229A5C2A55621C3921595CA954A21C38215B5CAB540334E4B23A4BDB785B0711D5394BF1
:4028C0001B685B030DD5364B3D229A5C2A55621C3C21595CA954A21C3B215B5CAB540334E4B22F4BDB781B0719D52E4B1B68DB0215D52B4E3E23F05C0133F35C1B020343EA
:402900001A004023F15C09040B0013434122B15C090619432819FFF7D9FC0434E4B2214B1B685B022FD51E4BDB78DB060BD51C4A4223D35C4321515C09021943281901F039
:4029400003FE0234E4B2164BDB789B060BD5144A4423D35C4521515C09021943281901F0F3FD0234E4B20E4BDB785B060BD50C4A4623D35C4721515C09021943281901F070
:40298000E3FD0234E4B2064E7078B27812020243F3781B0413431A0033791B06134303E0042F0020A03200201B020ED5134B1B681B020AD54823F35C4921715C0902194332
:4029C000281901F0C1FD0234E4B20D4B1B79DB0711D50A4B1B68DB010DD5094B4C229A5C2A55621C4B21595CA954A21C4A215B5CAB540334E4B2200070BDC046A03200200D
:402A0000042F0020F0B59DB019A816230381464B19934D2383800023444A002111F0BAFF434B1B68002B7DD005A8FFF7E1FD0400060001003F4804F0C5F9200004F020F91C
:402A4000FFF7D6FB010007003B4804F0BBF9364C6078A3781B0203431A00E17809040B00134321790906194315206844FFF72EFC6379A179090219431920684401F064FD09
:402A8000E379217A090219431B20684401F05CFD607AA37A1B0203431A00E17A09040B001343217B090619431D206844FFF70EFC607BA37B1B0203431A00E17B09040B0070
:402AC0001343217C0906194321206844FFF7FEFB0024002524E0002C05D13B007F336A461370012213E03B1B013B6A461370F8E7E3001B195B001B19D318B34205D205A968
:402B0000CB5C69468B54551CEDB20132D2B2132AEED9AAB269461A20FFF7A0FB0134E4B2BC42D8D31DB0F0BD042F0020D03200205C2F0020D8A3010010A4010030B585B0E6
:402B400003789B0705D5354A117801230B43137004E0324A137801218B4313704378827812021A432D4B5A70120A9A70C578017909022943427912040A4311008279120605
:402B80000A43DA70140A1C71140C5C71120E9A71C179027A12020A43DA71120A1A72C17B027C12020A435A72120A9A72C578017909022943427912040A4311008279120632
:402BC0000A43DA72140A1C73140C5C73120E9A73C179027A12020A43DA73120A1A7401A83622028101931123838000230C4A002111F0D0FE0B4B1B78002B0CD10A4B1B68E4
:402C0000022B08D11121094804F0DCF8112203493620FFF723FB05B030BDC04608260020D0320020CC320020B02B002038A4010084B010B588B00A900B910C920D9305A8FA
:402C40003A2303810AAB05931D2383800023414A002111F09FFE404B1B78022B74D10AAB1B786A4613700A9B1902090C501C01F06BFC0AAB1B78DB0728D50AABDB780B9AFE
:402C8000110219436B46D81CFFF720FB0AAAD379117A090219436B46D81D01F055FC0AAB1B789B0744D40C9B1B0A0AAA117B0906194309206844FFF709FB0D9B19020914ED
:402CC0000D206844FFF702FB0F2434E00AAAD37B117C090219436B46D81C01F035FC0E9B1B0A0AAA117D090619436B46581DFFF7EDFA0F9B1902090C0920684401F024FCC6
:402D00000AAB1B789B0715D40AABDB7D109A110219430B206844FFF7D9FA0AAAD37E117F090219430F20684401F00EFC112402E0092400E00B242100084804F043F8A2B2E1
:402D400069463A20FFF78AFA002008B010BC08BC04B01847D0320020AC2B002058A4010070B50500344B5B789B0708D5334B1B685B0006D5304BDB7BC373102402E00F24BD
:402D800000E00F242C4B5B789B0708D52B4B1B68002B04DA284B1B7C2B550134E4B2264B5B789B070DD5254B5B68DB0709D5224A537C917C09021943281901F0C5FB02344E
:402DC000E4B21D4B5B789B0708D51C4B5B689B0704D5194BDB7C2B550134E4B2164B5B789B070DD5154B5B685B0709D5124A137D517D09021943281901F0A6FB0234E4B2FD
:402E00000D4B5B789B0708D50C4B5B681B0704D5094B9B7D2B550134E4B2074B5B789B0708D5064B5B68DB0604D5034BDB7D2B550134E4B2200070BD90280020A0320020A2
:402E4000F0B58FB00BA81E230381424B0B93182383800023404A002111F09CFD3F4B1B68002B75D005A8FFF77BFF0400060001003B4803F0A7FF200003F002FFFFF7B8F9A9
:402E800001000700374803F09DFF324C6378A178090219431520684401F056FBE3782179090219431720684401F04EFB6379A179090219431920684401F046FBE079237A1D
:402EC0001B0203431A00617A09040B001343A17A090619431B206844FFF7F8F9E07A237B1B0203431A00617B09040B001343A17B090619431F206844FFF7E8F90024002567
:402F000024E0002C05D13B007F336A461370012213E03B1B013B6A461370F8E7E3001B195B001B19D318B34205D205A9CB5C69468B54551CEDB20132D2B2132AEED9AAB2CA
:402F400069461E20FFF768F90134E4B2BC42D8D30FB0F0BD90280020D0320020542F002078A40100C0A4010070B50500C44B5B789B070CD5C34B1B689B010AD5C04BDA7C12
:402F800042749A7C82745B7CC374142402E0112400E01124BA4B5B789B070ED5B94B1B685B010AD5B64B9A7D2A55621C597DA954A21C1B7DAB540334E4B2B14B5B789B0743
:402FC0000ED5B04B1B681B010AD5AD4B5A7E2A55621C197EA954A21CDB7DAB540334E4B2A74B5B789B070ED5A64B1B68DB000AD5A34B1A7F2A55621CD97EA954A21C9B7E0B
:40300000AB540334E4B29E4B5B789B070ED59D4B1B689B000AD59A4BDA7F2A55621C997FA954A21C5B7FAB540334E4B2954B1B685B001DD5924B5B789B0705D52023904AF1
:40304000D35C2B550134E4B28D4B5B789B0705D521238B4AD35C2B550134E4B2884B5B789B0705D52223864AD35C2B550134E4B2844B1B68002B1DDA814B5B789B0705D5DC
:4030800023237F4AD35C2B550134E4B27C4B5B789B0705D524237A4AD35C2B550134E4B2774B5B789B0705D52523754AD35C2B550134E4B2734B5B68DB072FD5704B5B7865
:4030C0009B070BD56E4A2623D35C2721515C09021943281901F038FA0234E4B2684B5B789B070BD5664A2823D35C2921515C09021943281901F028FA0234E4B2604B5B7864
:403100009B070BD55E4A2A23D35C2B21515C09021943281901F018FA0234E4B2594B5B689B071DD5564B5B789B0705D52C23544AD35C2B550134E4B2514B5B789B0705D53C
:403140002D234F4AD35C2B550134E4B24C4B5B789B0705D52E234A4AD35C2B550134E4B2484B5B685B072FD5454B5B789B070BD5434A2F23D35C3021515C09021943281952
:4031800001F0E2F90234E4B23D4B5B789B070BD53B4A3123D35C3221515C09021943281901F0D2F90234E4B2354B5B789B070BD5334A3323D35C3421515C090219432819E1
:4031C00001F0C2F90234E4B22E4B5B681B071DD52B4B5B789B0705D53523294AD35C2B550134E4B2264B5B789B0705D53623244AD35C2B550134E4B2214B5B789B0705D541
:4032000037231F4AD35C2B550134E4B21D4B5B68DB061DD51A4B5B789B0705D53823184AD35C2B550134E4B2154B5B789B0705D53923134AD35C2B550134E4B2104B5B7858
:403240009B0705D53A230E4AD35C2B550134E4B20B4B5B789B0711D50A4B1B68DB010DD5074B3D229A5C2A55621C3C21595CA954A21C3B215B5CAB540334E4B2200070BDBF
:4032800060320020A0320020F0B599B015A822230381464B15933E2383800023444A002111F078FB434B1B68002B7DD005A8FFF75BFE0400060001003F4803F083FD200069
:4032C00003F0DEFCFEF794FF010007003B4803F079FD364C6078A3781B0203431A00E17809040B00134321790906194315206844FEF7ECFF6379A1790902194319206844C4
:4033000001F022F9E379217A090219431B20684401F01AF9607AA37A1B0203431A00E17A09040B001343217B090619431D206844FEF7CCFF607BA37B1B0203431A00E17B79
:4033400009040B001343217C0906194321206844FEF7BCFF0024002524E0002C05D13B007F336A461370012213E03B1B013B6A461370F8E7E3001B195B001B19D318B3428B
:4033800005D205A9CB5C69468B54551CEDB20132D2B2132AEED9AAB269462220FEF75EFF0134E4B2BC42D8D319B0F0BD60320020D032002004260020F8A401003CA50100E2
:4033C00010B50300304A527892070CD52F4A526892060AD52C4A117C8173D17BC173927B0274112002E00E2000E00E20264A527892070ED5254A526852060AD5224AD17C85
:403400001954411C947C5C54811C527C5A540330C0B21D4A527892070ED51C4A526812060AD5194A917D1954411C547D5C54811C127D5A540330C0B2134A527892070ED5A2
:40344000124A126812050AD50F4A517E1954411C147E5C54811CD27D5A540330C0B20A4A527892070ED5094A1268D2010AD5064A117F1954411CD47E5C54811C927E5A54ED
:403480000330C0B210BDC046AC280020A0320020F0B591B00DA8262303813F4B0D931D23838000233D4A002111F074FA3C4B1B68002B6FD005AD2800FFF782FF04000600D0
:4034C0000100384803F07EFC200003F0D9FBFEF78FFE01000700344803F074FC2E4C63786B70A378E178090219431620684401F02BF8237961790902194306A801F024F8F5
:40350000A079E3791B0203431A00217A09040B001343617A090619431A206844FEF7D6FEA07AE37A1B0203431A00217B09040B001343617B090619431E206844FEF7C6FEB3
:403540000024002524E0002C05D13B007F336A461370012213E03B1B013B6A461370F8E7E3001B195B001B19D318B34205D205A9CB5C69468B54551CEDB20132D2B2132A5E
:40358000EED9AAB269462620FEF768FE0134E4B2BC42D8D311B0F0BDAC280020D0320020A82B002070A50100ACA5010010B503002A4A527892070CD5294A526892030AD524
:4035C000264A517CC173117C0174D27B4274122002E00F2000E00F20204A527892070ED51F4A526852030AD51C4A117D1954411CD47C5C54811C927C5A540330C0B2174ADF
:40360000527892070ED5164A526812030AD5134AD17D1954411C947D5C54811C527D5A540330C0B20D4A5278920708D50C4A5268D20204D5094A127E1A540130C0B2074AA8
:403640005278920708D5064A5268920204D5034A527E1A540130C0B210BDC046642F0020A0320020F0B591B00DA82A230381424B0D931A2383800023404A002111F08AF9C2
:403680003F4B1B68002B75D006A8FFF78FFF0400060001003B4803F095FB200003F0F0FAFEF7A6FD01000700374803F08BFB324C6378A178090219431920684400F044FFC4
:4036C000E3782179090219431B20684400F03CFF6379A179090219431D20684400F034FFE079237A1B0203431A00617A09040B001343A17A090619431F206844FEF7E6FDEE
:40370000E07A237B1B0203431A00617B09040B001343A17B0906194323206844FEF7D6FD0024002524E0002C05D101AA3B007F331370012213E03B1B013B01AA1370F8E76D
:40374000E3001B195B001B19D318B34205D206A9C95C01AB9954551CEDB20132D2B2132AEED9AAB201A92A20FEF756FD0134E4B2BC42D8D311B0F0BD642F0020D032002065
:40378000CC280020D8A5010014A6010070B50500BD4B5B789B070CD5BC4B5B68DB050AD5B94B9A7C02745A7C42741B7C8374132402E0102400E01024B34B5B789B070ED54A
:4037C000B24B5B689B050AD5AF4B5A7D2A55621C197DA954A21CDB7CAB540334E4B2AA4B5B789B070ED5A94B5B685B050AD5A64B1A7E2A55621CD97DA954A21C9B7DAB5457
:403800000334E4B2A04B5B789B070DD59F4B5B681B0509D59C4A537E917E09021943281900F092FE0234E4B2974B5B789B070DD5964B5B68DB0409D5934AD37E117F0902B1
:403840001943281900F080FE0234E4B28E4B5B789B0708D58D4B5B689B0404D58A4B5B7F2B550134E4B2884B5B789B070DD5874B5B685B0409D5844A937FD17F09021943A6
:40388000281900F061FE0234E4B27F4B5B789B070FD57E4B5B681B040BD57B4A2023D35C2121515C09021943281900F04DFE0234E4B2754B9B78DB0711D5744B5B68DB032E
:4038C0000DD5714B24229A5C2A55621C2321595CA954A21C22215B5CAB540334E4B26B4B5B689B0335D5684B9B78DB070DD5664B27229A5C2A55621C2621595CA954A21C28
:4039000025215B5CAB540334E4B25F4B9B78DB070DD55D4B2A229A5C2A55621C2921595CA954A21C28215B5CAB540334E4B2564B9B78DB070DD5544B2D229A5C2A55621C77
:403940002C21595CA954A21C2B215B5CAB540334E4B24E4B5B685B0335D54B4B9B78DB070DD5494B30229A5C2A55621C2F21595CA954A21C2E215B5CAB540334E4B2424B92
:403980009B78DB070DD5404B33229A5C2A55621C3221595CA954A21C31215B5CAB540334E4B2394B9B78DB070DD5374B36229A5C2A55621C3521595CA954A21C34215B5CCB
:4039C000AB540334E4B2314B5B681B0335D52E4B9B78DB070DD52C4B39229A5C2A55621C3821595CA954A21C37215B5CAB540334E4B2254B9B78DB070DD5234B3C229A5CD2
:403A00002A55621C3B21595CA954A21C3A215B5CAB540334E4B21C4B9B78DB070DD51A4B3F229A5C2A55621C3E21595CA954A21C3D215B5CAB540334E4B2134B9B78DB07E5
:403A400009D5124B5B689B0205D540230E4AD35C2B550134E4B20C4B9B78DB0711D50B4B1B68DB010DD5084B43229A5C2A55621C4221595CA954A21C41215B5CAB54033406
:403A8000E4B2200070BDC046B42B0020A0320020F0B59BB017A82E230381404B17934423838000233E4A002110F074FF3D4B1B68002B71D006AD2800FFF768FE0400060012
:403AC0000100394803F07EF9200003F0D9F8FEF78FFB01000700354803F074F92F4CE3786B70A378AB706378EB70237961790902194307A800F028FDA379E17909021943F7
:403B00001E20684400F020FD207A637A1B0203431A00A17A09040B001343E17A0906194308A8FEF7D3FB207B637B1B0203431A00A17B09040B001343E17B0906194309A8E0
:403B4000FEF7C4FB0024002524E0002C05D101AA3B007F331370012213E03B1B013B01AA1370F8E7E3001B195B001B19D318B34205D206A9C95C01AB9954551CEDB2013265
:403B8000D2B2132AEED9AAB201A92E20FEF766FB0134E4B2BC42D8D31BB0F0BDB42B0020D0320020802F002040A6010078A6010010B584B003AC20700D236B441970090A3E
:403BC000597032236A46138100942F3B93800023054A0021684610F0DDFE032221003220FEF73CFB04B010BDD032002010B584B003AC20700D206844FEF762FB32236A4667
:403C0000138100942E3B93800023064A0021684610F0C0FE042221003220FEF71FFB04B010BDC046D032002070B5002200250FE0D3009B1A9B009B18C3181C78E60705D528
:403C4000A60703D502256C401C7001250132D2B293B20C88A342EBD3280070BD0B88DA00D21A9200D3181D3BC0180378DA0702D4022253400370704784B070B505000591A5
:403C8000069207930D9C002C0AD005AB1B78DB0702D52100FFF7C8FF21002800FFF7DEFF2388182B0BD8D800C01A8000C01828181D2205A903F075F823880133238070BC17
:403CC00008BC04B01847C046F0B557464E464546E0B406000F0090460B88002B4DD103205AE0EC00641BA400641934196078A1780902014341453ED123789B0739D4E37B78
:403D0000227C12021A43274803F05CF82278042353402370244B9A461B8899465B19D800C01A8000C318214818181D22210003F038F84B4601335246138001221C4B1A7065
:403D40002B000EE0D800C01A8000C01830185C1CE100091B8900091971181D2203F021F823003A889342EDDB013A3A800123012201E001230022013502E000250023002275
:403D800039888D42ADDB002B03D0002A03D0002002E0012000E002201CBC90469946A246F0BDC046A0A60100FA2E0020FC2B0020F82B0020F0B5474680B406000F00904639
:403DC00000252DE0EC00641BA400641934196378A17809021943414521D1E37B227C12021A43124802F0EEFF22780423534023702B000EE0D800C01A8000C01830185C1C75
:403E0000E100091B8900091971181D2202F0C9FF23003A889342EDDB013D013A3A8001353B889D42CEDB04BC9046F0BDE0A60100F0B54170090A8170C273130A0374002A03
:403E40002ED1032303707832C270223A0271223A4271223A82712223C371037221234372313282722232C272792149420173442244234373827378234374562484743424AE
:403E8000C47412240475427582752123C375432202766522427681765523C376037730E002230370222252429446C27044277F420771662676424671782282716623C3713E
:403EC000037279256D42457257246442847235214942C1728B3A0273772343738373634643748774C6747826067578235B4243758375C57504764176827667235B42C37645
:403F00000377F0BDF0B50025002711E0BB00C658F3B2FF22964308E06A008A181478A419527822700135013BDBB2002BF4D10137042FEBD9F0BDC0460323044A1360044A61
:403F400013600022034B1A607047C0463000304030003140000E3F4010B50A00002102F029FF10BD10B502F0E1FE03680C2B00D1FEE7FEE710B50300094A1068C318094AEE
:403F80009A1A8021C9008A4202DC054A136005E002F0CCFE0C2303600120404210BDC046440C0020D832002070B50F4E0F4D13E029686B68AC68002202E001C901C3043223
:403FC000A242FAD1E868002202E0002102C304328242FAD11035013E002EE9D102F0ACFEFDF76EF9FEE7C046010000009CAE010010B50E4A136801218B43136000230AE071
:40400000032B03D89A000A49505800E009489900094A885001332F2BF2D9FCF775F8034A116801230B43136010BDC0460000104000000000653F00000000002010B586B0A7
:40404000040000F046FE0E4B1B6800930D4B1B680193033C0C4B1B5D02930C4B1B68039304AA0B4B04936B4605930A4B1A600A490A4A11601B6800F030FE06B010BDC04622
:4040800008010B4000010B40E0A7010030001040B6EA0000080010401700008004001040024B1B68012018407047C0460C002E4001BE704710B5040006E0084B586800F0CD
:4040C000FFFD074B9C46644480231B029C42F4D8024B9868604300F0F3FD10BD480C00200080FFFF10B5034B1B7B584300F0E8FD10BDC046480C002010B504000F4A1168F4
:4041000001230B4313600E4A0E4B1A600E4A1368802109020B431360002809D100200CE00120FFF7DFFFFFF7BBFF002804D1013C002CF5D1102000E0002010BD60F02E4095
:404140000220000078002E4010002E4010B500F0C0FD044A136804218B43136030BF00F0BCFD10BD10ED00E010B5040000F0B1FD002C05D0074B1B6880225202134303E06A
:40418000044B1A68044B1340024A136000F0A5FD10BDC0462C000B40FFFFFEFF10B500F098FD094B1B689B030AD4074B1968074A0A4007490A431A601A681A681A681A60D4
:4041C00000F08BFD10BDC0462C000B40FF000100003A028010B500F07CFD094C226880235B021340F22213432360FFF7D7FF23688022120613432360C046C04630BF10BD42
:404200002C000B4010B50D4B1A6801218A431A601A68022082431A60094A10683024A043203C204310601068093CA043014311601A68802109060A431A6010BD00F02E4072
:4042400000FF2E4070B51D4B1B6801241C40002802D0012816D02BE0184B19680122914319601968022081431960154B19682E3081432038014319601968093881430A430D
:404280001A6018E00D4B1A6802218A431A600C4A10680725A84301431160116830208143103801431160196801220A431A6002E00020FFF7FDFE200070BDC04600F02E4015
:4042C00000FF2E4010B500F0DFFA10BD10B50024064B1C70064B1C70064B1C70FFF7F2FF054B1C70054B1C7010BDC046D3320020CC320020D2320020A8320020B0320020A1
:4043000010B590B0040014221F490BA802F049FD1E4B1B78002B04D1FFF7D8FF01221B4B1A70002C2DD01A4B1C6008A805AA426006AB0893002101811B3119805980173907
:404340001971002313701231694403F02FFE002818D1104B0293104B0193052300930BABAE2212010D490E4803F076FD002809D101220C4B1A704C323C210B4810F0F2FA87
:4043800000E0012010B010BD10A80100E4140020AC3200207902000000B70100C000002015460000CA32002024A8010010B59CB00400374B1B78DB070BD50BF077FB0028C8
:4043C0000AD1334A137801218B4313709B0702D402E0002000E02820002801D0002C1BD02B4B1B789B0717D52A4B1B78042B13D816214B439E2292009918274A89180131F0
:404400002300162225480BF037FB002804D1204A137802218B431370002801D0002C35D01B4B1B780C221A4230D01B0712D562320021684602F0BEFC23006E22184968469A
:404440000BF01AFB002821D1114A137808218B4313701BE016220021684602F0ABFC114B5978162359439E239B009C4661440A4BC91801312300162268460BF0FDFA0028A7
:4044800004D1034A137804218B4313701CB010BDA8320020D032002000B70100B432002079B90100E414002010B5022833D81E4B1B78042B31D11D4B1B785B0730D400286B
:4044C0000BD11B4B1A004032002111822022596C0A805B6C10325A800EE001280CD1144B1A00403296211182C822D200596C0A805B6C8022D2015A800E4B18700C484030D7
:404500000EF04AFA00280DD1084A117804230B43DBB2137006E0012004E00420FF3001E00420FF3010BDC046CA320020D33200205C0C0020D23200207047C04603784078B1
:40454000000218437047C0460170090A4170704770B5050083890F2B1FD1043031332A00002110F017FA041E11D16868FFF7E6FF830706D50A4B1B6829008220400098470B
:4045800005E0074B1B6829000620FF309847054A137801218B43137000E00024200070BDAC320020D3320020024B00225A701A707047C046D032002010B582B00400FFF790
:4045C000C7FF0A4B1B78DB070ED4002809D001A912238B70A3890B80C87020680FF028FB02E020680FF0C2FB02B010BDD33200208379002B07D000200BE0C25C002A07D1E2
:404600000133DBB200E00023052BF6D9002000E001207047F0B583B004000D008B4A117801230B43DBB21370272800D1A2E011D8062866D004D8012821D005285DD0F3E004
:40464000242800D192E0262800D19BE0212800D0EAE06BE0422800D1D2E006D8282800D18CE0412800D1B5E0DEE04C2800D1D2E0FA2800D1D3E0432800D0D5E0C3E001AE1F
:404680000727377000237370300005F073FC377001237370300005F06DFC03F085FB6C4B1E683000FFF7A4FF00280CD0300003F0A5FB674E00213068FFF73EFF30680121B4
:4046C000FFF73AFF0BE0634E300003F097FB00213000FFF731FF01213000FFF72DFF03200DF0EEFF01A83F230370002343700EF005F80422584B1A7096E02A78574B1A705C
:4047000092E02B78002B00D08EE06B78002B07D1534B0522DA804B329A80524A1A606B604A4A137801218B4313707DE0474B1B789B0679D44C4B1B78102B02D105224A4B88
:40474000DA704A4B187848490EF0E4F801AB1880002804D0464B1B6801A9362098473B4A117801230B43DBB213705DE06A78414B1A7059E00222384B1A7055E00422364B21
:404780001A7051E0344B1B78022B4DD02F4A1278D20749D52D4A1278520708D503222E4B1A702A4A137804218B4313703CE0274A1278120708D50422274B1A70234A1378ED
:4047C00008218B4313702FE0032B2DD10422224B1A7029E0254E02222900300002F0E1FA00221E4B1A70317816235943224B5918224B9C4661441632214802F0D2FA13E05A
:40480000FFF7D2FE10E06988162900D9172128880FF018FA08E02800FFF7CEFE04E0194A117801230B431370084B1A7811231A4209D0064A137801218B4313700C4B1B68B3
:4048400029002000984703B0F0BDC046D3320020B00C0020B40C0020CA320020CC320020E8140020A00B002038110020D0320020AC320020B032002000B7010079020000EA
:40488000B4320020A83200207047C046034A117880235B420B43DBB21370704773000F40024A11787F230B401370704773000F40014B18707047C04603000F40014B1870D9
:4048C0007047C04643000F40014B18707047C04623000F40014B18707047C04683000F40014B1878C0B2704763000F40014B1878C0B2704753000F4010B501E0FFF7F6FF14
:40490000FFF7EEFFC306F9D410BDC04610B513490B783F22934309221343DBB20B70104C227801231343DBB22370FF20FFF7C0FFFF20FFF7C3FF7F20FFF7C6FF0020FFF71C
:40494000C9FF00F0C6F9227810231343DBB2237000F0C3F9FFF7D0FF10BDC04673000F4093000F4010B5064B1B78002B04D1FFF7CDFF0122024B1A70FFF788FF10BDC046E0
:40498000F014002004490A68D2B240239A43800118401043086070470002044004490A68D2B240239A43800118401043086070470003044010B500F089F810BD10B500F0F2
:4049C00033F810BD10B5044A1368802109060B431360FFF7EFFF10BD0000244010B5064B1B78002B04D1FFF7E9FF0122024B1A70FFF7E8FF10BDC046F2140020044B1B6882
:404A00001F221340082BF9D0024B18607047C0460802244040022440024B1B681F2018407047C0460802244010B5154A154B1A600023154A13600121144A1160144A15481F
:404A40000260072414480460144803601448016014490A60144A13600421144A1160144A1360144A1360144A1360144A1360144A1360144A13601268134B1A8010BDC046B6
:404A80000F0000020000244040002440480024400700008000032440040324401003244044002440000224400402244050002440880E2440C80E2440480F2440080F2440CB
:404AC000C80F2440880F2440F4140020064A1168064B0B40902109040B431360044B1A88044B1A607047C04600010240FFFF0FFFF4140020880F2440014B98647047C04686
:404B00000000002010B5040000F0E3F8044A1168044B0B40A4051C43146000F0DEF810BD00E400E0FFFF3FFF0422014B1A60704700E100E00422014B1A60704780E100E009
:404B400010B50400FFF7F6FF2000FFF7D5FF0320FFF7D8FFFFF7E8FF10BDC046034B1868C0B27F2290431860C0097047100204408423014AD05070470000002010B5040043
:404B800000F0A7F8044A1168044B0B40A4031C43146000F0A2F810BD10E400E0FF3FFFFF80229202014B1A607047C04600E100E080229202014B1A607047C04680E100E0B0
:404BC00010B50400FFF7F4FF2000FFF7D1FF0320FFF7D4FFFFF7E4FF10BDC0460004000C014B18607047C046080120400004000C014B18607047C046140120400004000C75
:404C0000014B18607047C0460C01204070B504000D0000F05EF8AC40024B1C6000F05DF870BDC0460800204010B500F052F8064A116801230B43136000F04FF81821012037
:404C4000FFF7E4FF10BDC04600002040014B18607047C0463801204010B5802252020A4B1A600C22094B1A600120FFF7EFFFFA24A4002000FFF7BAFF7820FFF7BFFF200086
:404C8000FFF7ACFF10BDC046000120402401204010B5064B1B78002B04D1FFF7DDFF0122024B1A70FFF7C0FF10BDC046F6140020014B18607047C046300120400000000061
:404CC0000230800803D00138FDD1C046C046C0467047EFF3108072B6704780F310887047444AF8B5564692464B005B0D9A4444465F464D465246F0B4884605000C000E0019
:404D00000700132A27DC002A59DB52463A4B134199460B004A461340034316D0374A384B00F0D4FC0022002300F09EFC00280AD0002C04DD802352465B031341984446466D
:404D40004B4600279E43380031003CBC90469946A246AB46F8BD5246332A08DD8023DB009A45F2D102000B0000F0B0FCEDE7254A9446012263445242DA4093460242E4D0ED
:404D80001E4A1F4B00F0A2FC0022002300F06CFC0028D8D0002C0CDD5346142B26D03423524601279B1A9F407F19AF429B415B4298445B4646469F4338003100C5E70F4A3D
:404DC0000F4B00F083FC0022002300F04DFC0028B9D0002C06DB2C4300270026002CB2D0094EB0E7802600273606ACE7133B9C46E044DEE701FCFFFFFFFF0F009C75008800
:404E00003CE4377EEDFBFFFF0000F03FF0B557464E464546E0B4A0B080460E0017008A18204B9A422FD8CB099946DC0100239C46002522E0B4420CD3BD420AD24246515DC6
:404E40006A46D1542278D2B28A4200D00120013502E022786946CA540134013301E0002000237F2BE6D9002804D06946484600F0BFF9844601239A46D144BD4205D26346CA
:404E8000002BECD001E001239C466346012B02D901235B429C46604620B01CBC90469946A246F0BDFFFF01000160704701607047324B1A781202324B1B781A43314B1B786B
:404EC0001B02314909780B4330498B4201D1072A06D0D42109018B4206D1042A04D102E02B4B042200E02A4B2A490B602A4B1A602A4B1B781B022A4A127813438022920139
:404F0000934202D0002B02D002E0264B00E0254B254A1360254B1B781B02254A12781343244A934205D0244A934204D0052B05D103E0224B02E0214B00E0204B204A1360DE
:404F4000204B1B681B09204A1268AA2A15D1012B13D9164B1B780E2B0FD11C4B1B781B021B4A127813431B4A13601B4B1B781B021A4A127813431A4A13607047D9F0FF0F69
:404F8000D8F0FF0FDFF0FF0FDEF0FF0F580B0000580D00006C002E4074002E40DBF0FF0FDAF0FF0F0220000078002E40DDF0FF0FDCF0FF0F0F0F000005050000050F000034
:404FC00080002E40EC0F00F0E00F00F06DF2FF0F6CF2FF0F84002E406FF2FF0F6EF2FF0F94002E4010B5FFF77DF810BD10B5FFF761F810BD10B500F04BF810BD10B500F0F7
:405000004FF810BD10B500F04BF8034800F02AF8002000F02DF810BD2153000010B5024800F046F810BDC046215300000220FF307047C0462B2070472B2070472B207047F9
:405040002B2070472B2070472B2070472B2070472B2070472B2070472B2070472B2070477047C046014B18677047C0460000002010B50400FFF72DFE044A1368C0218B4359
:40508000A4011C431460FFF728FE10BD0CE400E080225201014B1A607047C04600E100E080225201014B1A607047C04680E100E010B50400FFF7F4FF2000FFF7D3FF002013
:4050C000FFF7D6FFFFF7E4FF10BDC04682B0144B0093144B04330193134B6A461A601349134A1160C0461B681B0F1B07F0221206934204D10C4B1B68FF2018400DE00A4BFD
:405100001B681B0F1B07A0221206934204D0064B1B68FF20184000E0002002B07047C046B6E90000DC250020080010401600008004001040104B114A1A601149114A11600B
:40514000C0461B681B0F1B07F0221206934204D1094B1B68FF2018400DE0074B1B681B0F1B07A0221206934204D0034B1B68FF20184000E00020704708001040B6E80000B2
:40518000150000800400104082B0144B0093144B04330193134B6A461A601349134A1160C0461B681B0F1B07F0221206934204D10C4B1B68FF2018400DE00A4B1B681B0F1D
:4051C0001B07A0221206934204D0064B1B68FF20184000E0002002B07047C046B6EA0000DC25002008001040170000800400104030B5A5B004000023239322933F4B98421C
:4052000077D8002975D0802202A801F0CAFD3C4B9C4201D93B4B00E03B4B00937F2301933A4B6A461A603A493A4A1160C0461B681B0F1B07F0221206934204D1334B1B68E8
:40524000FF2213400DE0314B1B681B0F1B07A0221206934204D02D4B1B68FF22134000E000232393239B002B45D1FFF732FD0500FFF72CFF2290229B002B02D1FFF75AFFD1
:405280002390239B002B25D1234A0092009A2404144300941D4A6946116020481D490860C0461268120F1207F02109068A4204D1164B1B68FF2213400BE0144A1268120F3C
:4052C0001207A02109068A4203D0104B1B68FF2213402393229B002B07D1FFF755FF2290229B002B01D0229B23932800FFF7F5FC01E004232393239825B030BDFF030000EA
:40530000FF010000B6D70001B6D70000080010400400008004001040B6D800000500008010B514F05FFA10BD002243088B4274D303098B425FD3030A8B4244D3030B8B42C8
:4053400028D3030C8B420DD3FF22090212BA030C8B4202D31212090265D0030B8B4219D300E0090AC30B8B4201D3CB03C01A5241830B8B4201D38B03C01A5241430B8B42C0
:4053800001D34B03C01A5241030B8B4201D30B03C01A5241C30A8B4201D3CB02C01A5241830A8B4201D38B02C01A5241430A8B4201D34B02C01A5241030A8B4201D30B0201
:4053C000C01A5241CDD2C3098B4201D3CB01C01A524183098B4201D38B01C01A524143098B4201D34B01C01A524103098B4201D30B01C01A5241C3088B4201D3CB00C01AF8
:40540000524183088B4201D38B00C01A524143088B4201D34B00C01A5241411A00D20146524110467047FFE701B5002000F0F0F802BDC0460029F7D076E7704703460B4309
:405440007FD4002243088B4274D303098B425FD3030A8B4244D3030B8B4228D3030C8B420DD3FF22090212BA030C8B4202D31212090265D0030B8B4219D300E0090AC30B35
:405480008B4201D3CB03C01A5241830B8B4201D38B03C01A5241430B8B4201D34B03C01A5241030B8B4201D30B03C01A5241C30A8B4201D3CB02C01A5241830A8B4201D33C
:4054C0008B02C01A5241430A8B4201D34B02C01A5241030A8B4201D30B02C01A5241CDD2C3098B4201D3CB01C01A524183098B4201D38B01C01A524143098B4201D34B013E
:40550000C01A524103098B4201D30B01C01A5241C3088B4201D3CB00C01A524183088B4201D38B00C01A524143088B4201D34B00C01A5241411A00D2014652411046704758
:405540005DE0CA0F00D04942031000D34042534000229C4603098B422DD3030A8B4212D3FC22890112BA030A8B420CD3890192118B4208D3890192118B4204D389013AD0BC
:40558000921100E08909C3098B4201D3CB01C01A524183098B4201D38B01C01A524143098B4201D34B01C01A524103098B4201D30B01C01A5241C3088B4201D3CB00C01A2D
:4055C000524183088B4201D38B00C01A5241D9D243088B4201D34B00C01A5241411A00D20146634652415B10104601D34042002B00D54942704763465B1000D3404201B57D
:40560000002000F005F802BD0029F8D016E770477047C0468446101C62468C46191C634600E0C0461FB500F037FF002801D40021C8421FBD10B500F08BFE4042013010BD4C
:4056400010B500F029FF002801DB002010BD012010BDC04610B500F01FFF002801DD002010BD012010BDC04610B500F0B1FE002801DC002010BD012010BDC04610B500F0AF
:40568000A7FE002801DA002010BD012010BDC04670B500220C4B04000D00FFF7EFFF002804D12000290001F0B5FA70BD064B00222000290000F05AFF01F0ACFA80231B065B
:4056C0009C466044F1E7C0460000E041F8B556465F464D464446F0B40F00FD0FAA4609037C002E005F00450F490A7F0D2943C5001803BC46400A570F640DDB0F3843D2007D
:405700009A4500D1AAE06646A61B002E00DCFFE06346002B39D10300134300D0D9E06B0709D00F232B40042B05D02B1DAB42AD416D4249191D000B0200D482E0CA4B01344F
:405740009C4200D1FEE00A005646C84BED081A405007640552020543120B640D002112030B0D1B056405120B1A436308C04CF60714401C43640064083443280021003CBCAA
:4057800090469946A246AB46F8BDB74B9C42C6D080231B041843382E00DDEBE01F2E00DD1EE120239B1B9C4603006746BB40984613004746F3403B436746BA40571EBA4110
:4057C00013430200F240EB1A9D42B6411D008A1A7642911B0B0231D54A02560A002E00D1B4E0300001F084FA0300083B1F2B00DDB5E020222900D21AD1409E400A009D40FF
:4058000032439C4200DDB1E01C1B631C1F2B00DDD5E0202114002800C91A8C40D8408D400443DA40681E854111002543002476E74146314300D134E2310045466B0700D07D
:405840006FE756464807ED08C9080543864B9C4235D00A036405120B640D7FE76346E31A9B46002B00DC8BE06746002F3CD07E4FBC4200D153E780273F0438435B46382B9B
:4058800000DCF7E00243501E82410020D2B253194218AB4289411D00494289180B02CDD5714B01349C4200D13DE101206F4A6B080A4028401843D507054351082FE72B00D0
:4058C0000B4300D1CBE180231B030B431A03120B44E7013E002E6DD1AE1AB5429B41091A5B42C91A350075E70700174300D116E701235B429C46E3445B46002B00D0E0E09A
:40590000AA18AA429B4109185B4259181500C5E7002E75D1661C7605760D012E00DCF3E0AE1AB0464545BF410E1A7F42F61B370200D48FE0551BAA42B641411A76428E1B4E
:405940009A464BE756460022002507E7280001F0CFF920300300083B1F2B00DC49E72A002838824000259C4200DC4DE73F49E41A1140D4E60243501E8241D3B2002222E761
:40598000002B00D0F3E0631C9C465B055B0D012B00DC9FE0344B9C4500D1C3E0AA180918AA42804140424118CD075208154349086446B4E62C4B9C4200D0ECE6AFE6110072
:4059C0001F3CE1400C00202B00D17FE04021CB1A9A4015436A1E95410021254300242DE733000700203BDF403B00202E70D04027BE1BB0400243501E824113430022E2E6AA
:405A0000002C4FD0184CA44500D1ABE08024240476422143382E00DDDFE01F2E00DD43E12027BC1BA1460C004F46BC40A0462C004746F4403C434F46BD406F1EBD41F140F8
:405A40002C43151BAA429241411A5242891A64469A46BFE641464546314300D0BEE6002600240025F2E6C046FF070000FFFF7FFFFFFF0F801F2B59DC2027FF1ABC460700C9
:405A800063469F405B46B9461700DF40B8464F4643461F4363469A40531E9A415B463A43D840F4E60C002C435CD0F643002E55D1551BAA42A441411A6442091B9A46644607
:405AC00088E6964FBC4200D0D8E628E6002280E700208FE70B002B43002C00D0C2E0002B00D101E10300134300D118E6AB18AB42B6410918764271180A0200D409E1884AD8
:405B00001D00114064460AE6002C5BD10E002E4300D08AE00100114300D1C2E0010015009A46FCE56446002100258FE620235B429C46DC4463460700DF405B46BC46202BA9
:405B400000D1ACE040235F46DB1B98400243501E8241634613431A00002098E66F4CA44500D057E70100150064469A46D7E5002C39D10C002C436ED0DB43002B1AD0674CE2
:405B8000A44568D0382B00DDA4E01F2B00DDAEE020240F00E41AA740B9462F00DF40B846A3464F46444627435C46A5406C1EA541D9403D43AD1895429B4109185B4259181F
:405BC00064466BE60C002C4315D1010011437BD0010015009A46514CA1E50D43691E8D410021ECB22DE74D4CA44534D0802424045B422143C6E7040014434ED0ED084C0757
:405C00002C438025C9082D03294208D0C6082E4205D1D208410711430C009A463100620FC900E50011433D4C79E50600164300D175E5AE1AB0464545BF410E1A7F42F61B3F
:405C4000370200D4F4E5551BAA42B641411A7642891B9A4663E50100150064465FE5002200257BE5002B3BD00300134315D0ED084B072B438025C9082D03294207D0C40884
:405C80002C4204D141070B002100D2081343C9005A0F1143DD00214C41E5204C3FE5002054E700260025D1E534000F00203CE7403C00202E2BD04027BE1BB1400D43691EC8
:405CC0008D4100212C43BCE6802100260903134C0025BBE50D43691E8D410021EDB269E7010015000D4C1AE50100150017E51C000F00203CE7403C00202B0CD04027FB1AEB
:405D000099400D43691E8D410021254352E70021D4E71D0092E50021F3E7C046FF070000FFFF7FFFF0B556464D4644465F46F0B41D000E034C00CB0F87B007009246814658
:405D4000360B640D98466AD06D4B9C4235D08022430F12041343F6001E43C3009946694B00279C460023644402932B0368001B0BED0F51469B46400D009500D178E0604B62
:405D800098426CD05B46DA004B0F802109040B4313439B465346D9005A4B9C46002360444246201A6A40924601901F430F2F00D9B0E05548BF00C0598746374300D088E033
:405DC000002399460233082700260293CDE74346B34649460093029B009A9246022B00D0BFE1002153460122002689461A40444B002136030C0D2405360B2643434C1B05CE
:405E000026401E437600D207760816434846310007B03CBC90469946A246AB46F0BD330003434FD0002E00D1BCE1300000F060FF03000B3B1C2B00DDADE11D220100D31AF1
:405E400008393A008F408E40DA40B9461643304B00279C46002360444442029385E753465A4613432CD1002300219B46023397E70B4320D05B46002B00D19EE1584600F07A
:405E800037FF03000B3B1C2B00DD8FE102005946083A91408B461D21CB1A5146D9400B0059460B4351469B469140194B9C4660444042002374E7002300219B4601336FE79D
:405EC00003236DE70023994601330427002602934BE703230C27029347E70122D51A382D00DCB0E153461A4000210023002689467EE700238026994600223603004B77E79D
:405F0000FF07000001FCFFFF9CAD0100FFFF0F80F30300005E4500D972E100D16DE1019B4D46013B01930023340002935B461E020B0E1E430B020393330C994633041B0C60
:405F4000494620000093FFF7EFF9009B370043430600494620009846FFF76CFA2C0C09040C43A04509D9E419731EA74200D95CE1A04500D859E1023EE4194346E41A494688
:405F80002000FFF7D1F90300009A80465343494620009B46FFF74EFA2A040904120C0A4393450DD94346D219013B974200D93AE1934500D837E102235B429C46D219E044DE
:405FC0005B46D21A4346360433439B460399180C0B0C1D00059309045B46090C0C001B041B0C4443049159436B4368431B190D0CEB189C4203D980246402A44660441C0C7E
:4060000009041B04090C20185D18824200D2DEE000D1D7E0161A029B9C465D1BAC459B415B42F61AB74200D106E149463000FFF77BF9009B04004343494630009846FFF763
:40604000F9F92E0C09040E43B04509D9F619631EB74200D9F3E0B04500D8F0E0023CF6194346F31A494618000293FFF75DF9009B06004343494602989846FFF7DBF92D0459
:4060800009042D0C0D43A84509D9ED19731EAF4200D9D6E0A84500D8D3E0023EED192404210043463143049E059A3000ED1A0B040C0C1B0C58436643534354439A19030C67
:4060C0009B189E4203D980225202944664441A0C00041B04000C14191B18A54250D34DD001231943964A019B94466344002B00DCF3E64A0709D00F220A40042A05D00A1DB1
:406100008A42894149428B4411005A46D20108D55A468C4B1A4093468022D2009446019B6344894A934200DD5BE65A46C908500708435602514601225B058146360B5B0D18
:406140000A4055E680231B031E4211D05A461A420ED15E461E433603360B2A0089467B4B46E6032B00D1E1E0012BBBD11A40BBE61E433603360B4246744B39E6002BB1D0F3
:406180007D194A1EAF4252D91100A542A8D1039A9A42A5D1A6E703003E00283B9E400023994654E600F0A4FD203041E603005246283B9A400021934677E6504600F098FDC8
:4061C00020305EE6029B0026AB4200D323E7039E0299B44661448846B045B6415B467642F619B218013B0291974213D290424FD800D18EE0161A9B460DE7894500D28EE6D9
:4062000074084B46F60735005B081D434B46DB0702938BE69742EDD10399029CA142E5D93E1A9B46F7E69846CAE61E00A5E6AC423ED874D0110053E70121494252E71C008F
:406240000EE71E002BE71F2D3CDC20230A0058465B1B9840EA4099400243481E81415E461143EE404B0709D00F230B40042B05D00B00191D99429B415B42F61833023CD531
:406280005346012200211A40002601238946AFE502235B429C46039CE344A446029B63449846A045B6417642F6190293B218B1E603988A1E41008142B6417642F619AD1920
:4062C000039161E71F225242D31A5A46DA401300202D29D040225846551BA8400143481E814107200B4318400026002809D00F2200261A401900042ABBD10B0070077602B7
:40630000360BDB0803439946012253461A4000236EE502998D42BBD89B4600267BE603989842C5D3110032E70020D7E780265B4636031E433603360B009A8946034B57E5C0
:40634000FF030000FFFFFFFEFE070000FF070000F0B55F4656464D464446F0B41F035C00DB0F9A46194B0E034D00C90F8046360B6D0D8B4691463F0B640D9D4219D0134B82
:406380009C421BD00123A54206D018003CBC90469946A246AB46F0BDBE42F6D1C845F4D1D34510D0002DF0D1304303005A1E9341EBE7310001230143E7D1E0E73A4301231C
:4063C000002AE2D1DEE70023DFE7C046FF070000F0B55F46444656464D46F0B41F033C0B2C4F0E034D00A3465C008446360B6D0DC90F9046640DDB0FBD422BD0254FBC42DE
:406400002ED0002D0ED130430700814678427841002C17D15F463A4314D14B460020002B0AD006E0002C02D15846024301D099421AD00123484218433CBC90469946A246D1
:40644000AB46F0BD0028F2D058425841012240421043F1E737000743D0D002204042EBE75F461743CDD0F8E7A542E2DC05DB5E45DFD808D000205E45DED24842484101231E
:4064800040421843D8E7C445D3D80020C445F4D3D2E7C046FF070000F0B55F464D4644465646F0B41C03240BA4462F4C0F034D005E00C90F80463F0B6D0D8B469146760D33
:4064C000DB0FA54220D0284CA64222D0002D12D1384344424441002E20D0002C0DD05C42634101245B421C4320003CBC90469946A246AB46F0BD002E17D05B4519D05B46DB
:406500005C4201231C43EFE7390002240143EBD1D9E7614602241143E6D1D7E761460A43DBD100240028DFD0E9E761460A43E4D1E5E7B54203DD01225C421443D4E7B5422E
:40654000CDDB6745DBD809D000246745CCD259464C426141012449420C43C5E7C845CED80024C845F3D3BFE7FF070000F0B557464E464546E0B40E001100F20F9246C5004B
:40658000420F180337037400400A4E0F7F0A3043CF4E17435A00640D520DDB0FC900B24200D1E5E001267340A61AB446534500D1AFE0002E00DC0DE1002A3AD103000B4336
:4065C00000D0E4E06B0709D00F232B40042B05D02B1DAB42AD416D427F191D003B0200D488E0BB4B01349C4200D110E13A00B94B51461A4001235007ED085202640505439C
:40660000120B640D0B400021280012030D0D120B64052D0515436208AF4CDB072C401443640064081C4321001CBC90469946A246F0BDA74B9C42C5D080231B041843634652
:40664000382B00DDFDE01F2B00DD30E1624620239B1A02009A40664690460A009940F24046464B1E99413243114363460200DA40691A8D429B410D00BA1A5B42D71A3B027B
:4066800035D57A02530A98464346002B00D1C4E0404600F02DFB0300083B1F2B00DDC5E020222900D21A4746D1409F400A009D403A439C4200DDC0E01C1B631C1F2B00DDD0
:4066C000E4E0202114002800C91AD8408C408D400443DA40681E854117002543002471E7424663461A4300D14CE2674645466B0700D069E7012351467807ED08FA080B404A
:40670000054373498C4238D012036405120B640D79E7002E00DC9AE0002A47D06C4A944200D14FE78022120410436246382A00DC08E10143481E81410022C9B24919D2198B
:40674000A942BF410D007F42BF183A0200D442E15F4A0134944200D14EE101205D4A69083A4028400843D507054357089A4629E706000E4300D017E714E72900114300D15B
:40678000F9E1802109030A431203120B3BE701235B429846C4446346002B72D1691A8D429B413F1A5B42FF1A0D0068E702000A4300D107E7012252429046C4446246002AE5
:4067C00000D0E6E06918A942B6413F187642F7190D00BAE7002E00D080E0621C5205520D012A00DCF9E06A1A91464D45B6413A1A7642921B9046120200D499E04D1BA9423A
:406800008941C71B49427A1A90469A463CE752460123002513400022F5E6280000F068FA20300300083B1F2B00DC39E72A002838824000259C4200DC3EE7264FE41A174013
:40684000C0E60143481E81410022C9B210E7002E00D0F1E0621C94465205520D012A00DCA0E01B4A944500D1C5E06918A94292413F185242D2194908D5070D4357086446BF
:40688000A0E6134B9C4200D0D9E69BE611001F3CE1400C00202B00D180E04021CB1A9A4015436A1E95410027254300241FE763460200203BDA406346202B71D040236646FE
:4068C0009B1B98400143481E814111430022CFE6FF070000FFFF7FFFFFFF0F80002C48D0CA4CA24200D1A2E07442A1468024240427434C46382C00DDDBE01F2C00DD44E125
:406900004E462024A41B3E00A640A246B0464C462E00E640B4464646644626435446A5406C1EA54134002C434D46EF400D1B28E04A4643464D461A4300D0A5E60023002410
:406940000025DEE61F2A5ADC66462022921B060096409146B04662460E00D640424616434A4691404A1E9141020060463143C240E4E63C002C435AD0F443A146002C52D1F9
:406980004D1BA9428941C71B49427F1A14009A4675E69E4A944200D0C7E613E600227FE700208FE7002C00D0C8E03B002B4300D10FE103000B4300D104E66918A9429B41B1
:4069C0003F185B42DF193B0200D41AE1904B0D001F406446F6E59A4689E63A002A43002C5CD1002A75D102000A4300D1CAE007000D009A46E6E564460022002581E662468B
:406A00000600203AD6406246B046202A00D1B7E040226646921B904001434246481E8141114300228AE6794CA24200D061E707000D0014009A46C5E5002C41D13C002C43CF
:406A400078D0F443A146002C20D0704CA24271D04C46382C00DDB2E01F2C00DDBCE02026341BA2463C005646B4404E46A0462C00F440A446444666463443A4465446A54067
:406A800064466E1EB54125434C46E7406D188D4289413F184942CF19140056E6002A2FD102000A4300D184E007000D009A46574C88E53D436F1EBD41ECB200270D1B60E760
:406AC000524CA24236D0744280263604A1463743BEE702000A4300D174E56A1A90464545B6413A1A7642921B9446120200D4F7E54D1BA9428941C71B49427F1A9A4661E57E
:406B000002000A433AD0ED087C072C438025FA082D032A4208D0C7082F4205D145072C003A009A46C9080C43670FD200E5001743364C47E507000D00140043E53A002A4306
:406B400043D002000A4319D0ED087C072C438025FA082D032A4207D0C6082E4204D147073C003200C9080C43D700620FE50017439A46264C26E50022002544E5234C21E511
:406B8000002049E700230025BBE54C463E00203CE6404C46B446202C31D040244E46A61BB7403D436C1EA54164462C4300270D1BE7E6802200231203144C0025A1E53D4338
:406BC0006F1EBD410027EDB260E707000D000F4CF8E407000D00F5E44E463C00203EF440A0464C46202C0ED040244E46A41BA7403D436F1EBD4144460027254346E70027AB
:406C0000CFE70D0073E50027F2E7C046FF070000FFFF7FFF0B0330B5134D1A0B4B005B0DC90F0024AB4211DD104CA34210DC8024640322430E4CE41A1F2C0CDD0D48C31A54
:406C4000DA4013005C42002900D11C00200030BD094BCC18FAE7E040084CA44663449A4013000343EEE7C046FE0300001D0400003304000013040000FFFFFF7FEDFBFFFF28
:406C800070B5051E28D000F033F8154B154A1B1AD21A1F2A16DD2C00134A0025D21A94405A052403240B520D002124030B0D240B1B0523430D4C1205234013435B0028001A
:406CC000590870BD0B212C00081AC440954024035A05240B520DE7E700220024E4E7C0461E0400003304000013040000FFFF0F801C2101231B04984201D3000C10391B0A15
:406D0000984201D3000A08391B09984201D30009043902A2105C40187047C04604030202010101010000000000000000014B18687047C046C01400200E4B70B500251E00D0
:406D40000D4CE41AA410A54204D0AB00F35898470135F8E714F090F8084B00251E00084CE41AA410A54204D0AB00F35898470135F8E770BD84AE010084AE010084AE0100D0
:406D80008CAE010030B50024A24208D0035D651C0C5DA34201D0181B02E02C00F4E7002030BD002310B59A4203D0CC5CC4540133F9E710BD03008218934202D019700133F1
:406DC000FAE770470FB40B4B13B51C68002C05D0A369002B02D1200000F03CFA05AB049AA1682000019300F001FC16BC08BC04B01847C046C014002070B505000E0000284A
:406E000004D08369002B01D100F024FAAB69AC68002B02D1280000F01DFA254B9C4201D16C6808E0234B9C4201D1AC6803E0224B9C4200D1EC68A3891B0702D52369002BF5
:406E400011D12100280000F09BF800280BD0012040422BE0013B0136A360002B08DB23685A1C226019703178A3680029F2D10BE0A269934201DB0A29F1D12200280000F0AD
:406E800027F8431CEFD1E2E7013BA360002B08DA22000A31280000F01BF8431CD7D00A2004E00A2023685A1C2260187070BDC046E4AD010004AE010024AE010010B5034B50
:406EC00001001868FFF798FF10BDC046C0140020F8B505000F001400002804D08369002B01D100F0B7F9234B9C4201D16C6808E0214B9C4201D1AC6803E0204B9C4200D15C
:406F0000EC68A369A360A3891B070AD52369002B07D023682269FEB2981A636998420FDB08E02100280000F02BF80028F1D0012040421DE02100280000F01EF90028F6D11F
:406F4000A3680130013BA36023685A1C22601F706369984205D0A3893000DB0708D50A2E06D12100280000F007F90028DFD13000F8BDC046E4AD010004AE010024AE0100CB
:406F8000364B70B51D6806000C00002D05D0AB69002B02D1280000F05DF9314B9C4201D16C6808E02F4B9C4201D1AC6803E02E4B9C4200D1EC680C22A35E9AB2110723D403
:406FC000D10607D409220120326037321343A381404242E0530713D5616B002908D023004433994202D0300000F02CFA002363632422A3899343A381002363602369236094
:407000000822A3891343A3812369002B0BD1A0238022A1899B0092000B40934203D02100300000F0D1F90123A289134005D00023A36063695B42A36103E0920700D463690D
:40704000A36000202369834207D10C22A35E1A0603D540221343A381013870BDC0140020E4AD010004AE010024AE0100F7B58A8905000C0013075AD44B68002B02DC0B6C04
:40708000002B19DDE76A002F16D000232E682B6080235B011A4001D0606D14E00123216A2800B847431C0ED12B68002B0BD01D2B01D0162B02D12E6000205AE04022A389CA
:4070C0001343A38155E0A3895B0706D56368C01A636B002B01D0236CC01A00230200216A2800E76AB847A389421C06D129681D293AD8204ACA40D20736D500226260226967
:407100002260DB0405D5431C02D12B68002B00D16065616B2E600029CED023004433994202D0280000F08EF90020606321E00F69002FC1D00B680F60DB1B01930023920743
:4071400000D14B69A36003E0019B3F181B1A0193019B002BB0DD019B3A00216A2800A66AB0470028F0DCA389402201201343A3814042FEBD010040200B6970B505000C009F
:40718000002B01D100201CE0002804D08369002B01D100F05FF80B4B9C4201D16C6808E0094B9C4201D1AC6803E0084B9C4200D1EC680C22A35E002BE4D021002800FFF72A
:4071C00055FF70BDE4AD010004AE010024AE010010B5024900F0B0F810BDC04679710000002310B5040003604360836081814366C281036143618361190008225C30FFF71D
:40720000D9FD054B24626362044BA362044BE362044B236310BDC046697B0000917B0000C97B0000F57B000070B568254B1E5D430E002900743100F051F9041E08D00021BD
